:020000040800F2
:1000000048080020D90200083731000811300008E4
:1000100035310008991D0008313800080000000043
:10002000000000000000000000000000E5320008B1
:100030009B1D00080000000039310008E73200086D
:10004000F3020008F3020008F3020008F3020008BC
:10005000F3020008F3020008F3020008F3020008AC
:10006000F3020008F3020008F3020008F30200089C
:10007000F3020008F3020008F3020008F30200088C
:10008000F3020008F3020008F3020008F30200087C
:10009000F3020008F3020008F3020008F30200086C
:1000A000F302000871330008F3020008F3020008AD
:1000B000F30200080000000000000000F302000846
:1000C000F3020008F3020008F3020008F30200083C
:1000D000F3020008F3020008F3020008F30200082C
:1000E000F3020008F3020008000000000000000016
:1000F0000000000000000000000000000000000000
:1001000000000000F302000800000000F3020008F5
:100110000000000000000000F3020008F3020008E5
:10012000F3020008F3020008F3020008F3020008DB
:10013000F3020008000000000000000000000000C2
:10014000F3020008F3020008F302000800000000B8
:10015000F3020008F3020008F3020008F3020008AB
:10016000F3020008F3020008F30200080000000098
:10017000F3020008F3020008000000000000000085
:10018000F3020008F3020008F302000800F002F88E
:1001900000F092F80AA090E8000C82448344AAF18F
:1001A0000107DA4501D100F087F8AFF2090EBAE88D
:1001B0000F0013F0010F18BFFB1A43F0010318479B
:1001C000CC390000EC390000103A24BF78C878C15F
:1001D000FAD8520724BF30C830C144BF04680C604D
:1001E000704700000023002400250026103A28BF95
:1001F00078C1FBD8520728BF30C148BF0B60704799
:100200006E2900F04683702900F09584662903F07A
:100210001484652903F01184672903F00E84612991
:1002200003F00D8403681B0A28BF41F0800169298F
:1002300000F00481642900F00181752900F0FE803E
:100240006F2900F02284782900F06184E92900F008
:10025000BD83E42900F0BA83F52900F0B783EF29C4
:1002600000F01F84F82900F060840368DB0928BFD0
:1002700041F08001632901F04C80732901F0518025
:10028000E32901F05C80F32901F0618000207047D0
:100290001FB503F0CDFB01F0ABF8040000200021F6
:1002A00003F0B0FB401C60600020002103F094FBD1
:1002B000E0601FBD10B510BD01F06DF81146FFF7ED
:1002C000E7FF03F0EBFA01F049F903B4FFF7F2FF9F
:1002D00003BC01F093F90000094880470948004732
:1002E000FEE7FEE7FEE7FEE7FEE7FEE7FEE7FEE7E6
:1002F000FEE7FEE704480549054A064B7047000043
:10030000613300088D0100084802002048080020E1
:10031000480400204804002053EA020C00F06980E1
:100320002DE9F04B4FF00006002B1FBFB3FA83F509
:1003300003FA05F424FA05F65E4012BF1643B2FA3A
:1003400082F502FA05F4C5F120051EBF22FA05FC6C
:1003500044EA0C04203556EA044C4FEA144418BF12
:10036000641C4FF000084FF00009904271EB030C41
:1003700039D3002919BFB1FA81F701FA07F6B0FAAB
:1003800080F700FA07F6C7F120071EBF20FA07FC26
:1003900046EA0C062037B6FBF4FCA7EB0507103F36
:1003A00007F01F0BCBF120060CFA0BFB2CFA06F61C
:1003B00044BFB3460026202FA4BF5E464FF0000B7B
:1003C0005BEA060C08BF4FF0010B19EB0B09ABFB06
:1003D000027C48EB0608C01B06FB02CC0BFB03CCDF
:1003E00071EB0C01C1E70B46024641464846BDE8A9
:1003F000F08B13B54FF000004FF00001AFF3008019
:10040000BDE81C40704700007CB51D4616460C0038
:10041000009001D02044401E074B7B442A46694689
:100420000190304600F04FFA05461CB100206946A5
:1004300000F05CFA28467CBDD90400002DE9F041AB
:100440000646002410687529314616A510D000F024
:100450008CF9002802DA404213A507E031688A07C8
:1004600001D512A502E0490704D511A5012401E038
:1004700000F084F900210A2206F1240709E0B0FB0C
:10048000F2FCB0FBF2F302FB1C003030785418464B
:10049000491C0028F3D123462A463046BDE8F041E6
:1004A00000F09EB9000000002D0000002B000000AD
:1004B000200000002DE9F05F894604464FF0000A55
:1004C000DFF874B1FB44C0F820A02046E1688847FB
:1004D000002874D0252806D0D4E901219047206A4D
:1004E000401C2062F1E700265F462046E16888470D
:1004F0002028054607DB312D05D2781910F8200C8D
:1005000008B10643F1E7B00701D526F00406C4F8A8
:100510001CA00027C4F818A02A2D09D0284603F0F3
:10052000B0F938B304EB8708303DC8F8185019E02B
:1005300059F8041B204604EB87029161E168884763
:10054000012F054618D1E069002820DA26F02006A0
:100550001DE0D8F8180000EB800005EB40003038B3
:10056000C8F818002046E1688847054603F089F975
:100570000028EED1012F0AD02E2D08D12046E168A7
:1005800088477F1C0546022F46F02006C4DBA06981
:10059000002803DA404246F00106A061F00701D0CE
:1005A00026F010066C2D0BD0682D09D04C2D39D0BB
:1005B0006A2D35D0742D35D07A2D33D016E038E041
:1005C000E1682F4620468847B842054609D16C2F7E
:1005D00026D04FF48060E1680643204688470546F0
:1005E00004E06C2F1AD04FF4807006430DB3A5F1D0
:1005F0004100192802D8203546F400664A462946AB
:10060000204626604E46FFF7FBFD80B101280BD047
:10061000F61D26F0070000F1080956E74020E4E740
:100620008020D8E70020D6E706F104094DE72846E8
:1006300052E7206A00F002B8C435000030BCBDE8C3
:10064000C09F40EA0103024630B59B0710D14FF02E
:10065000013400E008C208C91D1B9D4315EAC41FF0
:10066000F8D013F0FF0102F8011B0DD01B0AF8E7C8
:1006700011F8013B002B02F8013B05D011F8013BBA
:10068000002B02F8013BF3D130BD10B5431C02E052
:1006900010F8011B71B18107FAD14FF0013202C885
:1006A0008C1A8C4314EAC211F9D0C01A0A0603D07E
:1006B000C01E10BDC01A10BD0A0401D0801E10BD9E
:1006C0000902FCD0401E10BD4FF0000200B51346D9
:1006D00094469646203922BFA0E80C50A0E80C5062
:1006E000B1F12001BFF4F7AF090728BFA0E80C5013
:1006F00048BF0CC05DF804EB890028BF40F8042B0C
:1007000008BF704748BF20F8022B11F0804F18BF78
:1007100000F8012B704770477047704770B504466A
:1007200085690068C10601D5302600E02026C00793
:1007300007D070BDD4E9012130469047206A401CA3
:1007400020626D1EF6D570BD70B5044685690078CF
:10075000C00707D170BDD4E9012120209047206A4D
:10076000401C20626D1EF6D570BD09684A0501D592
:1007700040B27047C905FCD500B2704709684A0508
:1007800001D5C0B27047C905FCD580B2704770B5BD
:100790000C460546012A05D02878800600D5EA696E
:1007A000002302E0012305E05B1C934202D2E05CDF
:1007B0000028F9D1A869E618C01AA861286A184467
:1007C00028622846FFF7AAFF04E0D5E9012114F8C2
:1007D000010B9047B442F8D32846FFF7B5FF70BD30
:1007E0002DE9F0470D4699469246044600F124084B
:1007F0000168880604D5E06921F01001216000E05D
:100800000120A84201DD471B00E00027A1697A19F9
:1008100002EB0900081AA0612078C00602D4204625
:10082000FFF77CFF002608E0D4E901211AF8060052
:100830009047206A401C761C20624E45F4DB2078ED
:10084000C0060AD52046FFF769FF06E0D4E901217A
:1008500030209047206A401C2062381EA7F1010713
:10086000F4DC07E0D4E9012118F805009047206A7C
:10087000401C2062281EA5F10105F3DC2046FFF78D
:1008800063FF2078000602D50220BDE8F087012032
:10089000FBE711680268006A530501D508700AE099
:1008A000D30501D5088006E0130603D5C217C1E9B8
:1008B000000200E0086001207047000001694A1C46
:1008C00002610878704700B58FB0CDE90131002191
:1008D000059105497944CDE9031011466846FFF7B3
:1008E000E9FD0FB000BD0000E5FFFFFF0A6802F858
:1008F000010B0A607047D1E900239A4202D2531CCF
:100900000B601070704700002DE9FF5F15468A46A6
:100910000446DFF8AC80F8440027D8E900103E46D2
:10092000CDE9001010E03AF816106A4602A800F06F
:1009300012FD411C07D02178890603D5E2693918D8
:1009400091420DD80744761C2078800602D5E069D4
:10095000B84205DDAE42E6DB3AF816000028E2D1E7
:10096000A069C01BA0612046FFF7D8FED8E900109F
:10097000CDE90010002017E03AF818106A4602A8E6
:1009800000F0E9FCB0F1FF3F81460BD000250DF1EE
:10099000080B05E0D4E901211BF8050090476D1C08
:1009A0004D45F7D308F10100B0428046E4DB206AF0
:1009B000384420622046FFF7C7FE00F003B800006D
:1009C000863100003FBCBDE8C09F00002DE9F0412A
:1009D0008046D21D22F007020025D2E90002F52947
:1009E00015A614D0011E72F1000106DA0023D0EB27
:1009F000030063EB020211A608E0D8F800108B0791
:100A000001D50FA602E0490701D50EA60125114622
:100A1000002408F1240704E000F098F830323A5539
:100A2000641C50EA0102F7D12B463246214640466B
:100A3000BDE8F041FFF7D4BE000000002D0000002B
:100A40002B0000002000000030B4002100F124043D
:100A500008E002F00705D208303542EA4372DB08AD
:100A60006554491C52EA0305F3D10468002310A21F
:100A7000250707D5A40600D421B1C46901230DA21E
:100A8000641EC46130BCFFF7ABBE10B504462146FE
:100A90001068FFF773FE02462046BDE810400023B1
:100AA000D2E7D21D22F00701D1E90023CCE70000F4
:100AB0000000000030000000F0B40D460188090578
:100AC00002D5214C7C4402E01F4C7C440E340021B2
:100AD00000F1240608E002F00F071209E75D42EA80
:100AE00003721B097754491C52EA0307F3D10278B9
:100AF0000023120704D5702D06D009B1022311344A
:100B00002246F0BCFFF76CBE01231034F8E770B545
:100B100004460D4621461068FFF730FE024629467E
:100B20002046BDE870400023C6E7D21D22F007032F
:100B3000D3E90023C0E70368126843F02003036091
:100B40000823C3610023B7E7E02F000030B5B0F100
:100B50000A024FEA900E71F100034EEA817EB0EB7B
:100B60000E0061EB91014FEA101E4EEA017E10EB80
:100B70000E0041EB11114FEA102E4EEA016E10EB00
:100B80000E0041EB11214FEA104E4EEA014E10EBE0
:100B90000E0041EB1141401841F100014FEAD00035
:100BA00040EA41704FEAD10110EB80054FEA810421
:100BB00044EA907444EB01046D1944EB0404521BA5
:100BC000A3414FF0000348BF0A3200D530BD401C9E
:100BD00041F1000130BD70472DE9FF4F0C461E4624
:100BE0004FF0FF378BB0D2E90001DDF860800A904A
:100BF0008A46C1F30A5505B93D46002108464FF023
:100C00000000BAF1000F00F4400005DA00EB8000AC
:100C10004FF4400101EA50004FEA9059B9F1010F39
:100C200000DDB9460A9850EA4A000ED044F610504A
:100C3000A5F2FF3545432F14B8F1000F1ED07542C1
:100C4000291E1EDDC9F100021CE0B8F1010F4FF0B2
:100C5000000001D0302103E0F24305E02154401CA4
:100C6000B042FBDB30460022002121540B99C1F831
:100C70000880C1E900200FB000F0BCB9BD1B6D1C9D
:100C8000DEE74A4600DA694206A800F0F5FB06AB4B
:100C900093E8070003AB83E8070050460A9900F089
:100CA000B3FC8DE80700A0F500501F3800900398B2
:100CB000002D0ADD42F21F014A460844002303A921
:100CC0000390684600F01CFF09E0A0F500504A467A
:100CD0001F38002303A90390684600F026FF8DE823
:100CE00007000004000C03D04FF0FF30410800E083
:100CF0001046B8F1000F03D00022009215461EE006
:100D0000751E05D4FFF722FF303262556D1EF9D5EE
:100D1000B3460122084302D000227F1C04E0207861
:100D2000302801D100227F1E002A099784D01DE0BF
:100D3000112D07DAFFF70AFF303262556D1C50EAB9
:100D40000102F5D1084302D00098C8B10EE000219D
:100D5000681E05E0235C625C63542254401E491CFB
:100D60008142F7DBAB46A81B401E0990002004F827
:100D70000B000B98099AC0F80880C0E9002B7AE7AD
:100D800011264FF0000857E72DE9F04F884604463A
:100D9000D21D22F0070191B0D1E90001CDE90A018D
:100DA00002F047FD02460B98C00F01D02D2007E04E
:100DB0002068810701D52B2002E0202101EAC00034
:100DC000032A099001D0072A05DB03464146204645
:100DD00000F012FB0BE12078800601D5E06900E00D
:100DE0000620B8F1650F814606D0B8F1660F18D01D
:100DF000B8F1670F70D131E00020B9F1110F009008
:100E000001DB112301E009F101030AAA01A90CA8E1
:100E1000FFF7E2FEDDE90C70002609F101058346CB
:100E200047E001204B4600904FF000470AAA01A975
:100E30000CA8FFF7D1FEDDE90DB00C995D46002648
:100E400010B909F101000D18B9EB050003D4C0F188
:100E5000FF3609F10105A5EB09002BE0B9F1010FFF
:100E600001DA4FF001090020B9F1110F0090484656
:100E700001DD112300E003460AAA01A90CA8FFF72F
:100E8000ABFEDDE90C704D46002683462078000756
:100E90000AD4AB4500DA5D4601A8012D04DD4119F5
:100EA00011F8011C302907D04F4502DA17F1040F61
:100EB00004DA012082460FE06D1EEEE7002F02DC0F
:100EC000ED1B3E4403E0781CA84200DD7D1CB81BEE
:100ED00000F1010A4FF000472078000703D4AA452B
:100EE00001DB4FF0FF3A0021B7F1004F0DF143084D
:100EF0008DF8431024D002202B23002F01DA7F42EB
:100F00002D230A21021EA0F1010000DC5FB197FB36
:100F1000F1FC97FBF1F201FB1C7C17460CF1300C45
:100F200008F801CDEEE7A8F101000370218809055A
:100F300001D5452100E06521A0F1010800F8011C60
:100F400009980FA9A1EB0807FF1D00B10120411965
:100F500001EBEA70A1693844081A401EA0612078AC
:100F6000C00602D42046FFF7D9FB099828B1D4E97E
:100F700001219047206A401C20622078C00622D5BB
:100F80002046FFF7CBFB1EE0002E04DBB34502DD5D
:100F900001A8805D00E03020D4E901219047206A5B
:100FA000401C2062761CAAF101005FEA000A0AD107
:100FB00000F01EFAC0680168405CD4E90121904746
:100FC000206A401C2062281EA5F10105DCDC07E038
:100FD000D4E9012118F8010B9047206A401C2062D7
:100FE000381EA7F10107F3DC2046FFF7ADFB032015
:100FF00011B041E630BCBDE8C08F00002DE9F04FD4
:1010000004460D46D21D22F0070089B0D0E90097B2
:101010004846394602F00DFC0246F80F01D02D2358
:1010200007E02068810701D52B2302E0202101EA97
:10103000C0038DF820300BB1012000E00020032A0E
:10104000824601D0072A04DB2946204600F0D4F965
:101050003FE12078800601D40D2500E0E569C7F363
:101060000A560D2D49DA00214FEA175B08464FF06A
:101070000000002F00F4400007DA00EB80004FF47E
:10108000400100EBD07001EA60008115012901DD0B
:101090004FF0FF3100224FEA850CBCF1180F06D348
:1010A0001346ACF118004FF08052C24003E04FF4F9
:1010B000801323FA0CF30CF10C0CBCF1200F04D3B9
:1010C000ACF1200C09FA0CF001E007FA0CF0002951
:1010D0004FF0004801DD18B90FE00ED140450CD3A8
:1010E00019EB02095F4121B9404502D19F4329EA2A
:1010F0000209BBEB175F00D0761C2088000502D5E3
:101100007B48784402E07A487844193808AA3023AA
:1011100002F80A30037C0AF10101002E0AF1020AEA
:1011200053546A4602DC4FF0300101E04FF03101C8
:101130004FF001088DF8001002D0A6F2FF3603E050
:1011400059EA470100D06B4E002D02DC21780907D7
:1011500004D54FF002082E218DF80110C44600215D
:101160000BE0C7F303433F01C35C491C6D1E02F84B
:101170000830052908F1010801DA002DF1DC002111
:101180000CE000EB1973491C1B786D1E082902F84E
:1011900008304FEA091908F1010801DA002DF0DCE6
:1011A00021688B0602D516E0A8F10108E04505DDAF
:1011B00002EB080313F8013C302BF5D0B8F1000F17
:1011C00009DD02EB080313F8013C2E2B03D10907BC
:1011D00001D4A8F10108002D05DD3E2102F8081018
:1011E0006D1E08F10108407C002E02F8080008F18D
:1011F000010804DA2D20764202F8080002E02B20D4
:1012000002F808000A214FF47A70864208F10108BA
:101210000BDB96FBF0F3303302F8083096FBF0F36B
:1012200008F1010800FB136601E0642E0CDB64206A
:1012300096FBF0F3303302F8083096FBF0F308F138
:10124000010800FB136601E00A2E06DB96FBF1F0B5
:10125000303002F8080008F1010896FBF1F001FBBC
:101260001060303002F80800A16908F1010808EBAD
:10127000050202EB0A00081AA0612078C00602D419
:101280002046FFF74BFA216A08AE01EB0A00206204
:1012900004E0D4E9012116F8010B9047BAF1010AE4
:1012A000F7D22078C00602D52046FFF737FA6E46FF
:1012B00009E016F8010B3E280FD0D4E90121904730
:1012C000206A401C2062B8F10108F2D22046FFF7E4
:1012D0003BFA09B0032000F00FB8206A28442062CE
:1012E00003E0D4E90121302090476D1EEBD3F8E7ED
:1012F000DD29000002FCFFFF30BCBDE8C08F10B547
:10130000436913B1AFF3008001E0FFF740FA012019
:1013100010BD127800F124010A7000224A700122E7
:10132000EDE711684FF0FF32E9E710B5436913B1FB
:10133000AFF3008001E0FFF7E7FA012010BD12884B
:1013400000F1240182840022C2840122EDE71168A9
:101350004FF0FF32E9E770B516460C46054600F03F
:101360003FF8036893F80101012806D0FF2C0FD83D
:10137000185D68B101202C7070BDD3F807013246AA
:10138000214603F2071303442846BDE8704018477E
:101390004FF0FF3070BD754600F0EAF8AE4605002C
:1013A0006946534620F00700854618B020B5FEF781
:1013B000A1FFBDE820404FF000064FF000074FF0BE
:1013C00000084FF0000B21F00701AC46ACE8C00963
:1013D000ACE8C009ACE8C009ACE8C0098D4670476C
:1013E00010B500F005F8001D10BD00BF1926000063
:1013F00000487047080200202DE9F0411F460446CE
:1014000003260168072A01F4006004DB08B116A571
:1014100005E016A503E008B115A500E015A521F02B
:1014200010002060A069C01EA0610FB1401EA06125
:101430002046FFF773F94FB1D4E9012138469047B0
:10144000206A401C2062C01C206206E0206AFAE785
:10145000D4E9012115F8010B9047761EF8D22046F9
:10146000FFF772F9BDE8F0814E414E006E616E00EB
:10147000494E4600696E66002DE9F04781461646E2
:101480008AB0354878440DC88DE80D00324878445C
:10149000801C03AC0DC884E80D0041F69B30084465
:1014A000372190FBF1F290FBF1F5A5F1800501FBEE
:1014B00012041B3C02D56442012000E00020DFF84A
:1014C00098A080460027FA44AAF1BE0A0EE0E00781
:1014D0000AD03246684607EB470101230AEB810137
:1014E00000F023FB8DE8070064107F1C002CEED178
:1014F000194F7F44AE3F19E0E80715D007EB041001
:101500000DF1180A90E80E008AE80E00C068F0425B
:1015100001D1981908903246012306A903A800F0CA
:1015200004FB03AB83E807006D10641C002DE3D1BE
:101530004FF0010332466946B8F1000F03A802D00C
:1015400000F0DEFA01E000F0F0FAC9E90001C9F8A4
:1015500008200AB0BDE8F087EC26000010B504466C
:10156000AFF300802046BDE81040FEF7AEBE00009D
:1015700000487047E8010020704700004FF0013C30
:1015800050F8042B51F8043B9A4221D1A2EB0C03F2
:10159000934313EACC1317D150F8042B51F8043BB2
:1015A0009A4215D1A2EB0C03934313EACC130BD14F
:1015B00050F8042B51F8043B9A4209D1A2EB0C03DA
:1015C000934313EACC13DBD04FF00000704700BF09
:1015D000D01A01BAB1FA81F101F0180122FA01F032
:1015E000CB40C1F12001DBB2C0B2C01A2CFA01F32A
:1015F000D11A914311EAC311E6D17047014918206D
:10160000ABBEFEE7260002005FEA400C08BF91F087
:10161000000F4FEA8C234FEAC12243EA51514FEAAF
:101620001C5018BF00F5F0404FEA300018BF41F0E1
:1016300000415FEA6C5C00F02980BCF1FF3F08BF0D
:1016400040F080407047130C06BF12044FF0100C9E
:101650004FF0000C130E04BF12020CF1080C130F14
:1016600004BF12010CF1040C930F04BF92000CF1A3
:10167000020CD30F04BF52000CF1010C11464FF0C5
:101680000002A0F11F00A0EB0C00704711F0004F0A
:1016900008BF704731F000413FF4D5AF0B0C06BFD7
:1016A00009044FF0100C4FF0000C0B0E04BF0902A0
:1016B0000CF1080C0B0F04BF09010CF1040C8B0F8B
:1016C00004BF89000CF1020CCB0F04BF49000CF1E0
:1016D000010CCCF12003A0EB0C0022FA03F302FA78
:1016E0000CF241EA030100F10100704720F07F4C49
:1016F00080EA030023F07F47ACEB070303F57C533C
:1017000000F0004003F1FF032DE980494FEA154B3B
:1017100009B44FEA144325EA0B4E24EA03480FF2BA
:10172000042606EB132749083E785FEA320203FBE2
:101730000667C7F5000707FB06F64FEA54374FEA7E
:10174000D64606F1020607FB066CCCF1005C4FEAB8
:101750001C472CEA074C07FB06F40CFB06F504EBD0
:1017600015464FEA961634BF00204FF000404FEA6E
:10177000D13706FB07FC4FEA1C4C0CFB0BF7D21BC6
:1017800003FB0CF761EB07010CFB0EF7B0EB074016
:1017900072EB17420CFB08F734BFA2EB0742B2EB27
:1017A000074261EB17414FEA0C444FEA910706FBF1
:1017B00007FC4FEA1C4C0CFB0BF7B0EBC74072EB7D
:1017C000573203FB0CF734BFA2EBC742B2EBC74260
:1017D00061EB57310CFB0EF7B0EBC70072EB5772A1
:1017E0000CFB08F734BFA2EBC702B2EBC70261EBF8
:1017F0005771039F4FEA816141EA921104EBCC04D7
:101800004FEAD1374FEA826206FB07FC42EA9012A8
:101810004FEA80604FEA1C4C0CFB0BF7D21B03FB1A
:101820000CF761EB07010CFB0EF7B0EB074072EB16
:1018300017420CFB08F734BFA2EB0742B2EB07429A
:1018400061EB17414FEA8C554FEA910704EB9C245A
:1018500006FB07FC4FEA1C4C0CFB0BF7B0EBC74038
:1018600072EB573203FB0CF734BFA2EBC742B2EB6B
:10187000C74261EB57310CFB0EF7B0EBC70072EBC0
:1018800057720CFB08F734BFA2EBC702B2EBC702DA
:1018900061EB577115EB4C254FEA816141EA9211DA
:1018A0004FEA82624FEAD13742EA901206FB07FC08
:1018B00044F100044FEA80604FEA1C4C0CFB0BF72C
:1018C000D21B03FB0CF761EB07010CFB0EF7B0EB2F
:1018D000074072EB17420CFB08F734BFA2EB07423C
:1018E000B2EB074261EB174115EB1C154FEA813152
:1018F00041EA92414FEA823242EA90424FEA803016
:101900004FEA0C7644F1000448EA03434EEA0B48E0
:101910004FF0000EB2EB080C71EB030724BF6246D8
:1019200039464EEB0E0E4FF0000B00185241494164
:101930004BEB0B0BB2EB080C71EB03077BF1000BCD
:1019400024BF624639464EEB0E0E4FF0000B0018D6
:10195000524149414BEB0B0BB2EB080C71EB030707
:101960007BF1000B24BF624639464EEB0E0E51EA66
:10197000020718BF46F0010616EB0E7655F100027D
:1019800054F1000103D5BDE88901BDE80088BDE838
:101990008901BDE80048B619524141EB0101A3F1AC
:1019A0000103704780807F7E7D7C7B7A79787776B3
:1019B00076757473727171706F6E6E6D6C6C6B6A2C
:1019C0006A696868676666656464636362616160CA
:1019D000605F5F5E5E5D5D5C5C5B5B5A5A59595847
:1019E00058575756565555555454535352525251B1
:1019F000515050504F4F4F4E4E4D4D4D4C4C4C4B07
:101A00004B4B4A4A4A49494948484847474747464D
:101A10004646454545444444444343434342424289
:101A200042414141002B9C4630D477002BD01CB55D
:101A30004FEA370703B44FF010004FF01001BAF12E
:101A4000000F06D0BCF1000FDCBF40F0080040F0F2
:101A500008014FF000000FBCBDE810400BF1010B76
:101A6000BBF1010F08BF5FEA170722BF12F10102A5
:101A700011F101014FF0004143F1000300F000407B
:101A800043EA00007047F9D35708D0E746EA064614
:101A900013F1400F4FEA16461FDD13F1200FDFBF91
:101AA00016430A46002120335B42BED0C3F1200713
:101AB00046EA064602FA07F74FEA164646EA0706DE
:101AC000C3F1200722FA03F201FA07F721FA03F122
:101AD0004FF0000342EA0702A7E746EA020646EA99
:101AE00006464FEA164646EA0106BCBF46EA0646E7
:101AF000360C4FF000034FF000024FF0000194E766
:101B00002DE9804C9A46934670B491E8380007C896
:101B100031EA400C48BF34EA430C03D5FFF7E6FD39
:101B2000FFF780FFF0BCBDE8008C2DE9804C9A46A1
:101B3000934670B491E8380007C810F0804F08BF92
:101B400013F0804F03D100F005F8FFF76BFFF0BCF6
:101B5000BDE8008C20F07F4780EA030023F07F4C33
:101B600007EB0C03A3F57C5300F00040A3F1FE0348
:101B700092F0000F00F0B38095F0000F00F0778036
:101B80002DE901494FEA11404FEA144621EA004885
:101B900000FB06FC24EA064708FB06F607FB08F8EC
:101BA00000FB07F718EB06484CEB164C4FEA124BBC
:101BB00018EB07484FEA15464CEB174022EA0B4E4C
:101BC0000BFB06FC25EA06470EFB06F607FB0EFE9E
:101BD0000BFB07F71EEB064E4CEB164C4FF00006C6
:101BE0001EEB074E4CEB174B18EB0B0840F10000B7
:101BF00018EB0E0B58EB000840F100008F1A4FF065
:101C000000013CBFC943661B14BFB5EB040C0021A7
:101C10003CBFC943F61B4FEA17444EEA8E0E27EA33
:101C200004454FEA1C4704FB07622CEA074C05FBFE
:101C300007F70CFB05F604FB0CFC16EB074642EB22
:101C4000174216EB0C4642EB1C421BEB060658EB08
:101C50000202414146EA9E0601D5BDE80189B61956
:101C6000524141EB0101A3F10103BDE801894FEAB3
:101C700014454FEA114724EA054621EA074C05FBC3
:101C800007F406FB07F70CFB06F105FB0CFC11EB58
:101C9000074144EB17444FEA124711EB0C4144EB68
:101CA0001C4422EA074C05FB07F206FB07F70CFB76
:101CB00006F605FB0CFC16EB074642EB174216EB4B
:101CC0000C4642EB1C456A1854F1000148BF7047AE
:101CD000B619524141EB0101A3F10103704795F0A0
:101CE000000F37D04FEA11424FEA144721EA02466B
:101CF00024EA074C02FB07F106FB07F70CFB06F48E
:101D000002FB0CFC14EB074441EB17414FEA15476B
:101D100014EB0C4441EB1C4125EA074C02FB07F590
:101D200006FB07F70CFB06F602FB0CFC16EB07465E
:101D300045EB174516EB0C4645EB1C42121951F1C9
:101D4000000148BF7047B619524141EB0101A3F1B0
:101D5000010370474FEA14454FEA114724EA05464C
:101D600021EA074C05FB07F106FB07F70CFB06F21F
:101D70004FF0000605FB0CFC12EB074241EB17414C
:101D800012EB0C4251EB1C4148BF7047921841EBDB
:101D90000101A3F101037047FEE7704772B6FEE749
:101DA00070B5044600F006F90546601C02D00448F0
:101DB0000078044400F0FEF8401BA042FAD370BD46
:101DC000000000202DE9F04FDFF8AC91002303253F
:101DD000A9F1040B85B04FF0010C0F2709F1040A9B
:101DE000ABF1040EBFE000BF0CFA03F6324075D031
:101DF0000C7904F00304012C01D0022C1BD184685F
:101E000000945C0005FA04F80494009C24EA080499
:101E10000094D1F80C80049C08FA04F8009C48EA6D
:101E20000408C0F808804468B4430E79C6F300166D
:101E30009E40264346600C79E443A4070AD0C46858
:101E40004FEA430805FA08F6B4438E6806FA08F626
:101E50002643C6600C7904F00304022C10D1DC0880
:101E600000EB84040294246A5E074FEAD66807FAFE
:101E700008F6B4430E6906FA08F62643029C266269
:101E800004684FEA430805FA08F6B4430E7906F0F1
:101E9000030606FA08F6264306604C6814F4403F31
:101EA00060D0364C266E46F001062666246E23F07E
:101EB000030604F001040094314C34440294A468F5
:101EC0009E074FEA167807FA08F6B443B0F1904F30
:101ED00005D02C4EB04204D1012612E042E000268B
:101EE0000FE0294EB04201D102260AE0274EB0424F
:101EF00001D1032605E0264EB04201D1042600E0C0
:101F0000072606FA08F62643029CA660D9F8006068
:101F10004C46D1F8048096435FEAC82800D51643A2
:101F20002660DAF800405646D1F8048094435FEA10
:101F3000882800D514433460DBF800405E46D1F8B1
:101F4000048094435FEA883800D514433460DEF897
:101F500000407646D1F8048094435FEAC83800D543
:101F6000144334605B1C0A6832FA03F47FF43CAF1C
:101F700005B000F00FB80000080401400010024056
:101F8000000001400004004800080048000C004820
:101F90000010004830BCBDE8C08F426921EA02034E
:101FA0000A4043EA0241816170470AB1816170478A
:101FB000816270470148806870470000000000207F
:101FC0000248816802781144816070470000002057
:101FD00010B50024032000F071F80F2000F008F87D
:101FE00008B1012401E000F025F8204610BD0000F2
:101FF00070B50E4E05460024307898B14FF47A71D2
:10200000B1FBF0F00A490968B1FBF0F000F0CAFD3D
:1020100040B9102D06D200222946501E00F02EF89D
:10202000756000E00124204670BD00000000002023
:102030000C000020094808B5016E41F0010101665D
:10204000016E01F001010091816D41F080518165C7
:10205000806D00F08050009008BD0000001002402C
:10206000002809DB00F01F02012191404009800097
:1020700000F1E020C0F8001170470000F0B40E4BF2
:102080001B680C46C3F30223C3F10705042D00D9D6
:102090000425191D072901D2002300E0DB1E0126BB
:1020A00006FA05F1491E214099409E40761E1640D1
:1020B0003143F0BC01F0D5BB0CED00E0064900F067
:1020C000070208684FF6FF03184040EA0220034A5F
:1020D00010430860704700000CED00E00000FA05B6
:1020E0001649B0F5007F0868C0F3412009D00228E6
:1020F00005D0086820F4C06040F4806008600020CB
:1021000070470128FBD0086820F4C06040F40070DC
:1021100008600B483222006850430A4AB0FBF2F0D4
:10212000401C00E0401E4A69520501D50028F9D143
:1021300048694005E3D50320704700000070004067
:102140000C00002040420F000248006800F4C0600C
:1021500070470000007000402DE9F84F044600274A
:102160000088A84D3E46000515D5606C60B1B0F5FD
:10217000000F04D0B0F5400F2BD001270AE0E8682B
:1021800040F48030E86024E00021201D00F0D6FFFC
:1021900007001ED03E46206880033AD5A86D4FF058
:1021A0000008C00009D4A86D40F08050A865A86D53
:1021B0004FF0010800F080500090DFF84CA2DAF8F0
:1021C000001041F48071CAF80010FFF7F3FE814659
:1021D00010E0D5F88800616C20F440000843C5F891
:1021E0008800D8E7FFF7E6FEA0EB0900022801D936
:1021F000032705E0DAF80000C005F3D5002F7DD0F5
:102200004FEA0706B8F1000F03D0A86D20F0805008
:10221000A8652078C00707D0D5F88800216A20F08B
:1022200003000843C5F888002078800707D5D5F853
:102230008800616A20F00C000843C5F88800207807
:10224000400707D5D5F88800A16A20F03000084380
:10225000C5F888002078800607D5D5F88800E16A9F
:1022600020F440600843C5F888002088800507D521
:10227000D5F88800E16B20F440200843C5F88800B9
:102280002088400507D5D5F88800216C20F440103F
:102290000843C5F888002078400607D5D5F888009F
:1022A000216B20F440500843C5F8880020780006D0
:1022B00007D5D5F88800616B20F440400843C5F885
:1022C00088002088C00507D5D5F88800A16B20F4C8
:1022D00040300843C5F8880020684FF000670003CD
:1022E0004FF0806850D5D5F88800A16C20F0406090
:1022F0000843C5F88800A06CB84200E005E03BD177
:10230000E86840F48010E8603EE0D5F8900010F4F2
:10231000407014D0A16D814211D0D5F89000D5F84D
:10232000901020F4407041F48031C5F89010D5F839
:10233000901021F48031C5F89010C5F89000C007C6
:1023400011D0FFF737FE074641F2883907E000BF9A
:10235000FFF730FEC11B494501D9032652E7D5F8E6
:1023600090008007F4D5D5F89000A16D20F440705E
:102370000843C5F8900045E7404505D10121201DDF
:1023800000F0DCFE00B106462068400317D5D5F802
:102390008800E16C20F040600843C5F88800E06CDC
:1023A000B84204D1E86840F48010E86007E0404596
:1023B00005D10121201D00F0C1FE00B10646208894
:1023C000400411D5D5F88800216D20F04050084315
:1023D000C5F88800206DB0F1805F05D10221201D75
:1023E00000F0ACFE00B106462088000406D555F882
:1023F000880F616D20F0804008432860304600F06F
:1024000005B80000001002400070004018BCBDE894
:10241000E08F00002DE9F0470F4605006BD0494ED4
:10242000306800F00700B84209D2306820F0070099
:1024300038433060306800F00700B8425BD128783C
:10244000414C80070AD5A868A16801F0F0018842D4
:1024500004D9A16821F0F0010143A1602878C007E8
:102460002CD06868032811D0022812D0216898B1B6
:10247000490500293FDAA16821F003010143A16069
:10248000FFF798FD804641F2883910E02168890104
:10249000EFE721688903ECE78907EAE7FFF78AFDA0
:1024A000A0EB0801494502D90320BDE8F087A068E8
:1024B000696800F00C00B0EB810FEFD1287880073D
:1024C0000AD5A868A16801F0F001884204D2A16889
:1024D00021F0F0010143A160306800F00700B8422C
:1024E0000BD9306820F0070038433060306800F0C6
:1024F0000700B84201D00120D7E72878400705D56A
:10250000A068E96820F4E0600843A060287800072C
:1025100006D5A068296920F4605040EAC100A06097
:1025200000F03EF8A168094AC1F30311515C01F0C3
:102530001F01C8400649086006480068BDE8F0472A
:10254000FFF756BD0020024000100240443A000848
:102550000C00002004000020054806490068896836
:10256000054AC1F30221515C01F01F01C8407047C8
:102570000C00002000100240843A0008054806497B
:1025800000688968054AC1F3C221515C01F01F014E
:10259000C84070470C00002000100240843A000838
:1025A00070B52549002318468A68CC6812F00C02E1
:1025B00004F00306214C4FEA640509D00C2A05D02B
:1025C000042A32D0082A00D1284670BD012E10D12D
:1025D0000B681B0704D4D1F89430C3F3032302E043
:1025E0000B68C3F30313164E56F82330DAB10C2AE6
:1025F000EBD1C86800F00300022818D0032818D0D7
:102600001846CA68CB68C2F30212C3F306234343D9
:10261000521CB3FBF2F2C868C0F34160401C40009A
:10262000B2FBF0F070BD184670BD204670BD20466C
:10263000E7E72846E5E70000001002400024F40028
:10264000543A00082DE9F84304006FD0FA4DA86809
:1026500000F00C06E86800F003072078C00664D597
:1026600076B10C2E01D1012F0AD0A069002828686C
:102670007AD040F001002860FFF79CFC80465DE0C6
:102680002868800702D5A0690028DED0216A286862
:10269000000703D5286800F0F00004E0D5F89400A6
:1026A000F02202EA1010814216D9084600F0DCFD43
:1026B00000283BD1286840F0080028602868216A7B
:1026C00020F0F000084328606868E16920F47F404A
:1026D00040EA0120686016E0286840F008002860A1
:1026E0002868216A20F0F000084328606868E169E2
:1026F00020F47F4040EA0120686026B9206A00F09B
:10270000B3FD0028D5D1FFF74BFFA968CB4AC1F331
:102710000311515C01F01F01C840C9490860C94854
:102720000068FFF765FC00287ED12EE0CAE000BFFC
:10273000FFF740FCA0EB0800022876D82868800745
:10274000F6D5286840F0080028602868216A20F043
:10275000F000084328606868E16920F47F4040EA9F
:102760000120686011E0FFE720F001002860FFF71A
:1027700021FC804606E000BFFFF71CFCA0EB080030
:102780000228DAD828688007F6D42078C00740D01D
:10279000082E18D00C2E01D1032F14D06068B0F58C
:1027A000803F17D0B0F5A02F286817D020F48030D4
:1027B0002860286820F4802028606068E0B1FFF776
:1027C000F9FB804614E02868800322D56068002861
:1027D00078D01EE0286840F48030EDE740F4802097
:1027E0002860F7E7FFF7E6FBA0EB08006428A4D811
:1027F00028688003F6D50CE0FFF7DCFB804605E097
:10280000FFF7D8FBA0EB0800642896D8286880035F
:10281000F6D4207880073BD5042E11D00C2E01D1A0
:10282000022F0DD0E06801E0AAE1FFE0002828684F
:102830001ED040F480702860FFF7BCFB07460CE018
:10284000286840050CD5E0680028C1D008E000BF2A
:10285000FFF7B0FBC01B022893D828684005F7D5C6
:102860006868217C20F0F85040EA016068600FE061
:1028700020F480702860FFF79DFB074605E000BF4D
:10288000FFF798FBC01B0228B1D828684005F7D491
:102890002078000729D560690028D5F8940012D067
:1028A00040F00100C5F89400FFF784FB074604E000
:1028B000FFF780FBC01B022899D8D5F89400800749
:1028C000F6D512E02BE120F00100C5F89400FFF7E7
:1028D00071FB074605E000BFFFF76CFBC01B022839
:1028E00085D8D5F894008007F6D42078400766D5BF
:1028F000A86D0027C00008D4A86D40F08050A865DE
:10290000A86D012700F0805000904F480168C9056C
:1029100012D40168814641F480710160FFF74AFBDF
:10292000804605E0FFF746FBA0EB080002287DD8B3
:10293000D9F80000C005F5D5A068012816D00528F3
:10294000D5F8900017D020F00100C5F89000D5F818
:10295000900020F0040000BFC5F89000A06841F28C
:102960008839C0B1FFF726FB80460FE0D5F890000C
:1029700040F00100F0E740F00400C5F89000F5E7F2
:10298000FFF718FBA0EB080149454FD8D5F8900098
:102990008007F5D50EE0FFF70DFB804606E000BF8F
:1029A000FFF708FBA0EB080149453FD8D5F8900098
:1029B0008007F5D41FB1A86D20F08050A86520785D
:1029C000800628D5606A0028D5F8980012D040F01B
:1029D0000100C5F89800FFF7EDFA074605E000BFD3
:1029E000FFF7E8FAC01B022820D8D5F89800800726
:1029F000F6D510E020F00100C5F89800FFF7DAFAEC
:102A0000074604E0FFF7D6FAC01B02280ED8D5F817
:102A100098008007F6D4A06AF0B3022816D00C2ED6
:102A20007DD0286820F08070286000E0A7E0FFF7E4
:102A3000C1FA0446A6E0000000100240443A000833
:102A40000C0000200400002000700040E868E26AEA
:102A500000F00301914228D1216B00F070020901BE
:102A60001039914221D1626B00F4FE41B1EB022F8B
:102A70001BD194F8382000F07841B1EBC26F14D12B
:102A8000A18F00F4C00249084905A1F50011914247
:102A90000BD194F8401000E06AE04908490600F0C4
:102AA000C060A1F1007181424BD00C2E73D0286818
:102AB000400170D4286820F080702860FFF77AFA0F
:102AC000064604E0FFF776FA801B022857D82868EC
:102AD0008001F7D4F4E90B016FF00F0202EB011152
:102AE0000843218A5204490802EB4151A26841EA95
:102AF00002210843217D4FF07E42490802EB4161EB
:102B00000843217B40EAC160E968244A1140084338
:102B1000E860286840F080702860E86800E03AE0EB
:102B200040F08070E860FFF745FA044605E000BF1A
:102B3000FFF740FA001B022821D828688001F7D54A
:102B400027E02868800124D4286840F0807028603D
:102B5000E86840F08070E860FFF72CFA044604E073
:102B6000FFF728FA001B022809D828688001F7D54A
:102B70000FE000BFFFF71EFA001B022802D9032056
:102B8000BDE8F88328688001F4D4E8680449084067
:102B9000E8600020F4E70120F2E700008C809D014E
:102BA000FCFFEEFE10B5401EB0F1807F01D3012086
:102BB00010BD4FF0E02460610F21601700F051FE5E
:102BC0000020A06107202061002010BD70477047E1
:102BD000704710B5040003D094F83D0010B107E031
:102BE000012010BD002084F83C00204600F022F8AF
:102BF000022084F83D00211D206800F0BFFB012069
:102C000084F8480084F83E0084F83F0084F84000CF
:102C100084F8410084F8420084F8430084F84400BA
:102C200084F8450084F8460084F8470084F83D00A5
:102C3000002010BD08B500680B49884212D10B482E
:102C4000016E41F400310166006E002200F4003094
:102C5000009011461920FFF711FABDE8084019202D
:102C6000FFF7FEB908BD000000440140001002401B
:102C700090F83D10012901D001207047022180F811
:102C80003D100168CA6842F00102CA6000680B4941
:102C9000884205D0B0F1804F02D00949884207D15F
:102CA0008168084A1140062906D0B1F5803F03D05B
:102CB000016841F00101016000207047002C0140D3
:102CC000004001400700010070472DE9F041044633
:102CD0000068C66805694FF00007A90713D5B1075A
:102CE00011D5F91E016101202077206880698007D5
:102CF000204602D0FFF7E8FF04E000F089F8204604
:102D000000F087F82777680716D5700714D5216873
:102D10006FF004000861022020772068806910F4B9
:102D2000407F204602D0FFF7CFFF04E000F070F8AC
:102D3000204600F06EF82777280715D5300713D501
:102D400021686FF008000861042020772068C069BE
:102D50008007204602D0FFF7B7FF04E000F058F8E4
:102D6000204600F056F82777E80616D5F00614D569
:102D700021686FF010000861082020772068C06982
:102D800010F4407F204602D0FFF79EFF04E000F0E1
:102D90003FF8204600F03DF82777E80708D0F00715
:102DA00006D021686FF001000861204600F032F87B
:102DB000280608D5300606D521686FF08000086126
:102DC0002046FFF704FFE80508D5300606D5216840
:102DD0006FF4807008612046FFF7F8FE680608D59A
:102DE000700606D521686FF040000861204600F0AB
:102DF00021F8A8060AD5B00608D521686FF0200092
:102E000008612046BDE8F041FFF7E2BEBDE8F08171
:102E10007047704700680549884205D10448016839
:102E2000491C016000F0A0BD704700000044014053
:102E300010000020704710B5040002D0E06F10B100
:102E400007E0012010BD002084F87800204600F043
:102E500025F82420E0672068016821F00101016065
:102E6000606A10B1204600F0BFFA204600F09AFBDD
:102E70000128E7D02068416821F490414160206832
:102E8000816821F02A0181602068016841F0010118
:102E900001602046BDE8104000F00ABB2DE9F0417A
:102EA0009EB00446142117A8FDF70EFC5C2168466D
:102EB000FDF70AFC29492068294C03270226002532
:102EC0004FF0070888421ED1684600960995FFF723
:102ED00043F908B1FEF762FFA06D40F40030A06531
:102EE000A06D00F400301C90E06C40F00100E06444
:102EF000E06C17A900F001001C900C20CDE917062A
:102F00004FF0904021E01749884223D104200A95D0
:102F100000906846FFF720F908B1FEF73FFFA06D6B
:102F200040F48020A065A06D00F480201C90E06C2F
:102F300040F00400E064E06C17A900F004001C906D
:102F40004FF44060CDE91706074819AA82E8A001AE
:102F5000FEF738FF1EB0BDE8F081000000440040DD
:102F60000010024000480040000800482DE9F843E6
:102F70000446C06F984616460D46202802D002200F
:102F8000BDE8F88395B18EB10020C4F884002120FB
:102F9000E067FFF70FF8A4F850608146A4F852608C
:102FA000A0682027B0F5805F02D003E00120E7E7AA
:102FB000206910B12E46002510E000260EE0802189
:102FC000204600F0EFFBC0B9D6B116F8010B21681E
:102FD0000885B4F85200401EA4F85200B4F852001C
:102FE0004B464FF00002CDF800800028E7D14FF0AB
:102FF0004001204600F0D6FB38B1E7670320BFE769
:1030000035F8020BC0F30800E1E7E7670020B7E7F7
:10301000FEE7000030B587B014216846FDF754FB89
:103020001648C16C41F00101C164C16C01F001019D
:103030000591C16C41F00401C164C16C01F004014F
:103040000591C16C41F00201C164C06C0C4D00F0EF
:1030500002004FF460740590012221462846FEF7D5
:10306000A4FF012000210094CDE9010103916946EC
:103070002846FEF7A7FE07B030BD00000010024052
:10308000000400480C4810B50A4901604F21416016
:10309000002140F2E732C0E9021201614161802162
:1030A0008161FFF796FD002803D0BDE81040FEF7D0
:1030B00075BE10BD00440140140000200D4810B53D
:1030C0000B4901604FF416514160002181600C22D0
:1030D000C160C0E904128161C16101624162FFF710
:1030E000AAFE002803D0BDE81040FEF757BE10BD71
:1030F00000440040600000200D4810B50B490160FD
:103100004FF416514160002181600C22C160C0E97A
:1031100004128161C16101624162FFF78CFE0028E7
:1031200003D0BDE81040FEF739BE10BD0048004096
:10313000E8000020FEE7FEE7704700002DE9F041BF
:10314000444C05468846E0680026810728680DD073
:10315000E16801F00301814216D1A8B1E068696815
:10316000C0F30210401C88420ED120E0012804D098
:10317000022805D0032807D108E02168890701E06B
:1031800021684905002907DB01265FE021688903E2
:1031900002D421684903F5E7E1686A686FF00F031C
:1031A00021F0730103EB021211430143E160206837
:1031B00020F080602060FEF7FDFE074605E000BFBE
:1031C000FEF7F8FEC01B022837D820680001F7D4AC
:1031D000B8F1000F18D0B8F1010F1DD0287D4FF0C5
:1031E0007E41400801EB4060A96840EA0120216966
:1031F000194A114008432061206840F08060206037
:10320000FEF7D8FE07461AE0A868297B000240EACC
:10321000C1602169114AECE7288A1149400801EB95
:103220004050A96840EA012021690E4AE1E700BF49
:10323000FEF7C0FEC01B022801D9032606E0206865
:103240000001F5D52069A969084320613046BDE831
:10325000F081000000100240FF80FFF9FF80FF07AF
:103260000000E0FFFF809FFFF8B51C4D06460024DC
:10327000A86DC00002D5FEF767FF0DE0A86D40F015
:103280008050A865A86D00F080500090FEF75CFFAC
:10329000A96D21F08051A965B0F5007F04D0802E82
:1032A00007D94FF003040AE0802E08D9A02E01D8D8
:1032B00004E001D1022402E0702E00D1012408486C
:1032C000016821F0070121430160006800F0070058
:1032D000A04201D00120F8BD0020F8BD001002403E
:1032E000002002407047FEF76BBE10B596B0442137
:1032F0006846FDF7E9F9142111A8FDF7E5F94FF447
:103300000070FEF7EDFE08B172B6FEE710200090E7
:103310000120002460210690CDE907410221CDE97A
:103320000A100C9028200D900720CDE90E01684668
:103330001091FFF787F908B172B6FEE70F201190E0
:103340000320CDE912041494042111A81594FFF769
:1033500061F8002801D072B6FEE716B010BD00007B
:103360000248016841F470010160704788ED00E097
:103370000148FFF7AABC00001400002070B50268E5
:10338000164B4FF08046984201D0B04203D122F054
:1033900070044A682243124C124D984205D0B04244
:1033A00003D0A04201D0A84203D122F44076CA68DB
:1033B00032434E6922F08002324302608A68C26260
:1033C0000A688262984203D0A04201D0A84201D18B
:1033D000096901630121416170BD0000002C0140B9
:1033E000004001400044014090F82410090706D530
:1033F00001684A68436B22F400421A434A6090F81D
:103400002410C90706D001684A68836A22F4003292
:103410001A434A6090F82410890706D501684A6863
:10342000C36A22F480321A434A6090F82410490794
:1034300006D501684A68036B22F480221A434A6069
:1034400090F82410C90606D501688A68836B22F4B7
:1034500080521A438A6090F82410890606D50168C4
:103460008A68C36B22F400521A438A6090F82410D1
:10347000490611D501684A68036C22F480121A4388
:103480004A60016CB1F5801F06D101684A68436C3F
:1034900022F4C0021A434A6090F82410090606D5A7
:1034A00001684A68806C22F4002202434A60704737
:1034B0002DE9F84300260446C0F88460FEF77AFD43
:1034C0008046206800684FF0200500076FF07E47B7
:1034D00012D54346002229042046009700F062F9E5
:1034E00050B1216851E8000F20F0800041E800024F
:1034F000002AF6D1E56721E020680068400722D560
:10350000434600224FF480012046009700F04AF91C
:10351000C8B1216851E8000F20F4907041E8000222
:10352000002AF6D12068083050E8001F21F0010180
:1035300040E80012002AF5D1C4F8805084F8786081
:103540000320BDE8F883E567C4F8805044F8606F55
:10355000666026760020F4E7016851E8002F22F427
:10356000907241E80023002BF6D10168083151E840
:10357000002F22F0010241E80023002BF5D1016E5B
:10358000012908D1026852E8001F21F0100142E829
:103590000013002BF6D12021C0F880100021016615
:1035A000816670472DE9F041044601688068226910
:1035B000E3691043626900251A431043714F0A689A
:1035C000714B1A4002430A6020684168E26821F4A6
:1035D0004051114341602168A069B94201D0226A7B
:1035E00010438A6822F4306202438A606749236884
:1035F00067488B420DD1D0F8880010F0030006D048
:10360000012847D0022843D0032830D144E00121CB
:103610002EE060498B420BD1D0F8880010F00C00EE
:1036200034D0042836D0082832D00C281FD133E0FB
:1036300059498B420BD1D0F8880010F0300025D0CA
:10364000102827D0202823D0302810D124E0BB42D6
:103650000DD1D0F8880010F4406017D0B0F5806F1D
:1036600018D0B0F5006F13D0B0F5406F14D0102112
:103670004A4A00264FF40040BB422FD171B10229C3
:103680000FD004290FD0082973D10FE00021EFE7F4
:103690000221EDE70421EBE70821E9E7FEF75CFFF3
:1036A00003E0104602E0FEF77BFFE8B3626802EB3E
:1036B000420181425DD8B0EB023F5AD8010E0302AD
:1036C0005008181871410023FCF726FE344AA0F573
:1036D000407191424DD82168C8604BE0E3694FF6D4
:1036E000EF77834228D1092943D2DFE801F00508AA
:1036F0000B420D4242421000FEF72EFF06E0FEF79D
:103700003DFF03E0104602E0FEF74AFF60B14100D2
:10371000606801EB5001B1FBF0F0A0F11001B9427B
:1037200027D84FF6F07100E024E00140C0F34200DA
:1037300001432068C1601DE009291AD2DFE801F0C9
:1037400005080B190D1919191000FEF705FF06E001
:10375000FEF714FF03E0104602E0FEF721FF48B138
:10376000616800EB5100B0FBF1F0A0F11001B9422B
:1037700005D90125A6662846E666BDE8F08180B237
:10378000A9E7000000800040F369FFEF0038014026
:103790000010024000440040004800400024F400B3
:1037A000FFFC0F002DE9F047994617460E460446E8
:1037B0004FF00008089D2FE0681C2DD0FEF7FAFBA3
:1037C000A0EB0900A84214D89DB120680168490700
:1037D00022D5C169C94309070DD4082505622046D1
:1037E000FFF7BAFEC4F8845084F878800120BDE861
:1037F000F0870320FBE7C069C04300050CD42168B3
:103800004FF4006008622046FFF7A6FE2020C4F8AF
:10381000840084F87880ECE72068C06936EA00000C
:1038200004D00020B842C7D00020E0E70120F9E72B
:10383000FEE703B401984100009850EAC12018BF88
:1038400004204A0D18BF40F0010040F2FF72B2EBB5
:10385000515F08BF40F00200012808BF052002B0F8
:1038600070470907090E002804DB00F1E02080F80A
:103870000014704700F00F0000F1E02080F8141DE4
:10388000704730380A2801D2012070470020704765
:10389000014800680021704710000020FEF798FBE7
:1038A000FFF723FDFFF7B6FBFFF708FCFFF724FC4B
:1038B000FFF7E8FB00F00EF8FFF7EAFF02460B46C1
:1038C00003A000F071F86420FEF76AFAF4E7000044
:1038D00025640A0010B5054800F034F8BDE8104032
:1038E000034AC82103A000F009B80000140000201A
:1038F0009D39000854696D657231000070B5154638
:103900000E4602460E49002000EB400301EBC303C4
:103910001B7D23B1401C0528F6DB002070BD00EBA9
:10392000400001EBC00411462046FCF78AFE00204F
:10393000A660C4E9030501202075204670BD000083
:103940007001002010B5FFF793F9002005490246E9
:1039500000EB400301EBC303401C1A750528F7DB9D
:1039600010BD00007001002070B500240A4D2646ED
:1039700004EB440005EBC000017D41B1C168491C66
:10398000C1608268914202D3C66000698047641CAE
:10399000052CEDDB70BD0000700100208021014886
:1039A000FEF7FBBA000400480FB4802100B5A1B0B7
:1039B00023AB6846229AFCF727FD6846FCF765FEB4
:1039C00082B24FF47A7369460248FFF7CFFA21B00A
:1039D0005DF814FB6000002010B500290AD00878BB
:1039E000002807D005487844FDF7C8FD002801D01D
:1039F000002010BD0248784410BD0000C601000040
:103A0000BE01000010B500290AD00878002807D0B0
:103A100005487844FDF7B2FD002801D0002010BD14
:103A20000248784410BD0000B6010000AE0100005D
:103A30004FF04070E1EE100A7047FDF7A5B9FDF7B1
:103A4000DDBA0000000000000000000001020304D5
:103A500006070809A0860100400D0300801A060031
:103A600000350C0040420F0080841E0000093D001C
:103A700000127A000024F40000366E010048E801CC
:103A8000006CDC02000000000102030404000008D6
:103A90000000000000000002000100001000000013
:103AA000000000000000000030313233343536377A
:103AB0003839414243444546403058003031323372
:103AC0003435363738396162636465664030780072
:103AD0003031323334353637383961626364656684
:103AE000787000303132333435363738394142431B
:103AF000444546585000000002400000000000A06D
:103B00000000000005400000000000C800000000A8
:103B10000C4000000000409C000000001940000024
:103B20000020BCBE0000000034400000BFC91B8E56
:103B300000000004B5400000504BCFD06607E2CF34
:103B4000010000006C4100003E8251AADFEEA73464
:103B500001000000D9420000DCB5A0E23A301F9716
:103B6000FFFFFFFFB4450000FD25A0C8E9A3C14F3A
:103B7000FFFFFFFFFF3F000000000080000000008B
:103B8000FF3F00000000008000000000D83C00085B
:103B90000000002014000000C8010008EC3C0008F0
:103BA0001400002034080000E40100081C0000009C
:103BB00043000000F8FFFFFF0C0000000E000000B3
:103BC0000F0000002E000000100100004300000064
:103BD000F8FFFFFF0040404040404040404041412E
:103BE00041414140404040404040404040404040D2
:103BF000404040404005020202020202020202026C
:103C00000202020202202020202020202020200268
:103C100002020202020290909090909010101010F8
:103C20001010101010101010101010101010101094
:103C30000202020202028888888888880808080828
:103C400008080808080808080808080808080808F4
:103C5000020202024000000000000000000000001C
:103C60000000000000000000000000000000000054
:103C70000000000000000000000000000000000044
:103C80000000000000000000000000000000000034
:103C90000000000000000000000000000000000024
:103CA0000000000000000000000000000000000014
:103CB0000000000000000000000000000000000004
:103CC00000000000000000000000000000000000F4
:103CD00000000000000000000100000010000000D3
:0C3CE0000000000000093D000000000092
:040000050800018D61
:00000001FF
