:020000040800F2
:10000000480800202D0200080B180008E51600081B
:10001000091800086D040008351F000800000000E2
:10002000000000000000000000000000B9190008F6
:100030006F040008000000000D180008BB1900083C
:10004000470200084702000847020008470200086C
:10005000470200084702000847020008470200085C
:10006000470200084702000847020008470200084C
:10007000470200084702000847020008470200083C
:10008000470200084702000847020008470200082C
:10009000470200084702000847020008470200081C
:1000A00047020008451A00084702000847020008F6
:1000B000470200080000000000000000470200089E
:1000C00047020008470200084702000847020008EC
:1000D00047020008470200084702000847020008DC
:1000E000470200084702000800000000000000006E
:1000F0000000000000000000000000000000000000
:10010000000000004702000800000000470200084D
:10011000000000000000000047020008470200083D
:10012000470200084702000847020008470200088B
:10013000470200080000000000000000000000006E
:1001400047020008470200084702000800000000BC
:10015000470200084702000847020008470200085B
:10016000470200084702000847020008000000009C
:1001700047020008470200080000000000000000DD
:1001800047020008470200084702000800F002F892
:1001900000F03CF80AA090E8000C82448344AAF1E5
:1001A0000107DA4501D100F031F8AFF2090EBAE8E3
:1001B0000F0013F0010F18BFFB1A43F0010318479B
:1001C000281F0000481F0000103A24BF78C878C1DB
:1001D000FAD8520724BF30C830C144BF04680C604D
:1001E000704700000023002400250026103A28BF95
:1001F00078C1FBD8520728BF30C148BF0B60704799
:100200001FB501F048FF1FBD10B510BD00F0F3F899
:100210001146FFF7F5FF01F09FFE00F011F903B45E
:10022000FFF7F2FF03BC00F01BF90000094880470C
:1002300009480047FEE7FEE7FEE7FEE7FEE7FEE7C8
:10024000FEE7FEE7FEE7FEE704480549054A064BE0
:1002500070470000351A00088D0100084802002090
:1002600048080020480400204804002053EA020CFB
:1002700000F069802DE9F04B4FF00006002B1FBF06
:10028000B3FA83F503FA05F424FA05F65E4012BFCB
:100290001643B2FA82F502FA05F4C5F120051EBF35
:1002A00022FA05FC44EA0C04203556EA044C4FEAD5
:1002B000144418BF641C4FF000084FF0000990422E
:1002C00071EB030C39D3002919BFB1FA81F701FA98
:1002D00007F6B0FA80F700FA07F6C7F120071EBF4D
:1002E00020FA07FC46EA0C062037B6FBF4FCA7EB25
:1002F0000507103F07F01F0BCBF120060CFA0BFB94
:100300002CFA06F644BFB3460026202FA4BF5E4653
:100310004FF0000B5BEA060C08BF4FF0010B19EB26
:100320000B09ABFB027C48EB0608C01B06FB02CCAA
:100330000BFB03CC71EB0C01C1E70B4602464146B7
:100340004846BDE8F08B13B54FF000004FF00001B8
:10035000AFF30080BDE81C40704740EA010302464D
:1003600030B59B0710D14FF0013400E008C208C936
:100370001D1B9D4315EAC41FF8D013F0FF0102F8BE
:10038000011B0DD01B0AF8E711F8013B002B02F806
:10039000013B05D011F8013B002B02F8013BF3D1E2
:1003A00030BD4FF0000200B5134694469646203902
:1003B00022BFA0E80C50A0E80C50B1F12001BFF41E
:1003C000F7AF090728BFA0E80C5048BF0CC05DF884
:1003D00004EB890028BF40F8042B08BF704748BFD2
:1003E00020F8022B11F0804F18BF00F8012B704746
:1003F000704770477047754600F02CF8AE46050010
:100400006946534620F00700854618B020B5FFF72F
:100410001BFFBDE820404FF000064FF000074FF0F3
:1004200000084FF0000B21F00701AC46ACE8C00912
:10043000ACE8C009ACE8C009ACE8C0098D4670471B
:1004400010B50446AFF300802046BDE81040FFF72A
:10045000E6BE000000487047E80100207047000039
:1004600001491820ABBEFEE726000200FEE77047F8
:1004700072B6FEE770B5044600F006F90546601C4A
:1004800002D004480078044400F0FEF8401BA0426B
:10049000FAD370BD000000202DE9F04FDFF8AC91D9
:1004A00000230325A9F1040B85B04FF0010C0F27A1
:1004B00009F1040AABF1040EBFE000BF0CFA03F629
:1004C000324075D00C7904F00304012C01D0022CC9
:1004D0001BD1846800945C0005FA04F80494009C25
:1004E00024EA08040094D1F80C80049C08FA04F86B
:1004F000009C48EA0408C0F808804468B4430E79B8
:10050000C6F300169E40264346600C79E443A407D8
:100510000AD0C4684FEA430805FA08F6B4438E6867
:1005200006FA08F62643C6600C7904F00304022C90
:1005300010D1DC0800EB84040294246A5E074FEAC1
:10054000D66807FA08F6B4430E6906FA08F6264399
:10055000029C266204684FEA430805FA08F6B44391
:100560000E7906F0030606FA08F6264306604C6884
:1005700014F4403F60D0364C266E46F001062666E5
:10058000246E23F0030604F001040094314C34443B
:100590000294A4689E074FEA167807FA08F6B44357
:1005A000B0F1904F05D02C4EB04204D1012612E09C
:1005B00042E000260FE0294EB04201D102260AE0B7
:1005C000274EB04201D1032605E0264EB04201D1AC
:1005D000042600E0072606FA08F62643029CA660D9
:1005E000D9F800604C46D1F8048096435FEAC828E9
:1005F00000D516432660DAF800405646D1F804804C
:1006000094435FEA882800D514433460DBF8004047
:100610005E46D1F8048094435FEA883800D51443DD
:100620003460DEF800407646D1F8048094435FEAF7
:10063000C83800D5144334605B1C0A6832FA03F4EE
:100640007FF43CAF05B000F00FB800000804014093
:10065000001002400000014000040048000800486B
:10066000000C00480010004830BCBDE8C08F426953
:1006700021EA02030A4043EA0241816170470AB15C
:10068000816170478162704701488068704700004F
:1006900000000020024881680278114481607047A0
:1006A0000000002010B50024032000F071F80F2096
:1006B00000F008F808B1012401E000F025F8204618
:1006C00010BD000070B50E4E05460024307898B17C
:1006D0004FF47A71B1FBF0F00A490968B1FBF0F010
:1006E00000F0CAFD40B9102D06D200222946501E46
:1006F00000F02EF8756000E00124204670BD000077
:10070000000000200C000020094808B5016E41F0EF
:1007100001010166016E01F001010091816D41F05E
:1007200080518165806D00F08050009008BD000010
:1007300000100240002809DB00F01F020121914057
:100740004009800000F1E020C0F80011704700006F
:10075000F0B40E4B1B680C46C3F30223C3F107052C
:10076000042D00D90425191D072901D2002300E01A
:10077000DB1E012606FA05F1491E214099409E40E4
:10078000761E16403143F0BC01F0D5BB0CED00E005
:10079000064900F0070208684FF6FF03184040EAD8
:1007A0000220034A10430860704700000CED00E08F
:1007B0000000FA051649B0F5007F0868C0F3412033
:1007C00009D0022805D0086820F4C06040F4806099
:1007D0000860002070470128FBD0086820F4C06042
:1007E00040F4007008600B483222006850430A4A07
:1007F000B0FBF2F0401C00E0401E4A69520501D5F2
:100800000028F9D148694005E3D50320704700006E
:10081000007000400C00002040420F0002480068B9
:1008200000F4C06070470000007000402DE9F84FF0
:10083000044600270088A84D3E46000515D5606C8B
:1008400060B1B0F5000F04D0B0F5400F2BD00127F8
:100850000AE0E86840F48030E86024E00021201DD0
:1008600000F0D6FF07001ED03E46206880033AD530
:10087000A86D4FF00008C00009D4A86D40F080506A
:10088000A865A86D4FF0010800F080500090DFF8D7
:100890004CA2DAF8001041F48071CAF80010FFF79A
:1008A000F3FE814610E0D5F88800616C20F440002A
:1008B0000843C5F88800D8E7FFF7E6FEA0EB09007B
:1008C000022801D9032705E0DAF80000C005F3D5B6
:1008D000002F7DD04FEA0706B8F1000F03D0A86DB6
:1008E00020F08050A8652078C00707D0D5F8880090
:1008F000216A20F003000843C5F8880020788007AB
:1009000007D5D5F88800616A20F00C000843C5F8C7
:1009100088002078400707D5D5F88800A16A20F024
:1009200030000843C5F888002078800607D5D5F840
:100930008800E16A20F440600843C5F888002088F8
:10094000800507D5D5F88800E16B20F440200843E6
:10095000C5F888002088400507D5D5F88800216CA7
:1009600020F440100843C5F888002078400607D5D9
:10097000D5F88800216B20F440500843C5F8880062
:100980002078000607D5D5F88800616B20F4404038
:100990000843C5F888002088C00507D5D5F8880029
:1009A000A16B20F440300843C5F8880020684FF060
:1009B000006700034FF0806850D5D5F88800A16C1F
:1009C00020F040600843C5F88800A06CB84200E001
:1009D00005E03BD1E86840F48010E8603EE0D5F8DF
:1009E000900010F4407014D0A16D814211D0D5F860
:1009F0009000D5F8901020F4407041F48031C5F893
:100A00009010D5F8901021F48031C5F89010C5F8F9
:100A10009000C00711D0FFF737FE074641F2883932
:100A200007E000BFFFF730FEC11B494501D903268F
:100A300052E7D5F890008007F4D5D5F89000A16D65
:100A400020F440700843C5F8900045E7404505D1C3
:100A50000121201D00F0DCFE00B1064620684003A5
:100A600017D5D5F88800E16C20F040600843C5F840
:100A70008800E06CB84204D1E86840F48010E86077
:100A800007E0404505D10121201D00F0C1FE00B165
:100A900006462088400411D5D5F88800216D20F045
:100AA00040500843C5F88800206DB0F1805F05D143
:100AB0000221201D00F0ACFE00B106462088000493
:100AC00006D555F8880F616D20F0804008432860F6
:100AD000304600F005B800000010024000700040F1
:100AE00018BCBDE8E08F00002DE9F0470F46050077
:100AF0006BD0494E306800F00700B84209D2306828
:100B000020F0070038433060306800F00700B8423A
:100B10005BD12878414C80070AD5A868A16801F00C
:100B2000F001884204D9A16821F0F0010143A160DD
:100B30002878C0072CD06868032811D0022812D06A
:100B4000216898B1490500293FDAA16821F0030125
:100B50000143A160FFF798FD804641F2883910E01B
:100B600021688901EFE721688903ECE78907EAE753
:100B7000FFF78AFDA0EB0801494502D90320BDE833
:100B8000F087A068696800F00C00B0EB810FEFD12E
:100B9000287880070AD5A868A16801F0F00188428A
:100BA00004D2A16821F0F0010143A160306800F097
:100BB0000700B8420BD9306820F007003843306096
:100BC000306800F00700B84201D00120D7E728784C
:100BD000400705D5A068E96820F4E0600843A060FC
:100BE0002878000706D5A068296920F4605040EAFB
:100BF000C100A06000F03EF8A168094AC1F30311EA
:100C0000515C01F01F01C8400649086006480068B1
:100C1000BDE8F047FFF756BD00200240001002403B
:100C2000A02000080C000020040000200548064910
:100C300000688968054AC1F30221515C01F01F0177
:100C4000C84070470C00002000100240E02000085F
:100C50000548064900688968054AC1F3C221515C0C
:100C600001F01F01C84070470C0000200010024036
:100C7000E020000870B52549002318468A68CC6832
:100C800012F00C0204F00306214C4FEA640509D06F
:100C90000C2A05D0042A32D0082A00D1284670BD7B
:100CA000012E10D10B681B0704D4D1F89430C3F384
:100CB000032302E00B68C3F30313164E56F82330E8
:100CC000DAB10C2AEBD1C86800F00300022818D072
:100CD000032818D01846CA68CB68C2F30212C3F3BF
:100CE00006234343521CB3FBF2F2C868C0F34160D1
:100CF000401C4000B2FBF0F070BD184670BD2046AD
:100D000070BD2046E7E72846E5E7000000100240F6
:100D10000024F400B02000082DE9F84304006FD04F
:100D2000FA4DA86800F00C06E86800F00307207888
:100D3000C00664D576B10C2E01D1012F0AD0A0696E
:100D4000002828687AD040F001002860FFF79CFC5A
:100D500080465DE02868800702D5A0690028DED0C3
:100D6000216A2868000703D5286800F0F00004E035
:100D7000D5F89400F02202EA1010814216D90846F4
:100D800000F0DCFD00283BD1286840F00800286016
:100D90002868216A20F0F000084328606868E1694B
:100DA00020F47F4040EA0120686016E0286840F0A7
:100DB000080028602868216A20F0F00008432860B5
:100DC0006868E16920F47F4040EA0120686026B944
:100DD000206A00F0B3FD0028D5D1FFF74BFFA968CA
:100DE000CB4AC1F30311515C01F01F01C840C9494E
:100DF0000860C9480068FFF765FC00287ED12EE036
:100E0000CAE000BFFFF740FCA0EB0800022876D83C
:100E100028688007F6D5286840F008002860286810
:100E2000216A20F0F000084328606868E16920F436
:100E30007F4040EA0120686011E0FFE720F00100F8
:100E40002860FFF721FC804606E000BFFFF71CFC8E
:100E5000A0EB08000228DAD828688007F6D42078AA
:100E6000C00740D0082E18D00C2E01D1032F14D06B
:100E70006068B0F5803F17D0B0F5A02F286817D074
:100E800020F480302860286820F480202860606882
:100E9000E0B1FFF7F9FB804614E02868800322D513
:100EA0006068002878D01EE0286840F48030EDE7C4
:100EB00040F480202860F7E7FFF7E6FBA0EB08008E
:100EC0006428A4D828688003F6D50CE0FFF7DCFB83
:100ED000804605E0FFF7D8FBA0EB0800642896D811
:100EE00028688003F6D4207880073BD5042E11D0E3
:100EF0000C2E01D1022F0DD0E06801E0AAE1FFE045
:100F0000002828681ED040F480702860FFF7BCFBE2
:100F100007460CE0286840050CD5E0680028C1D0E1
:100F200008E000BFFFF7B0FBC01B022893D8286879
:100F30004005F7D56868217C20F0F85040EA016050
:100F400068600FE020F480702860FFF79DFB074683
:100F500005E000BFFFF798FBC01B0228B1D8286846
:100F60004005F7D42078000729D560690028D5F816
:100F7000940012D040F00100C5F89400FFF784FB04
:100F8000074604E0FFF780FBC01B022899D8D5F87C
:100F900094008007F6D512E02BE120F00100C5F89F
:100FA0009400FFF771FB074605E000BFFFF76CFBFD
:100FB000C01B022885D8D5F894008007F6D4207885
:100FC000400766D5A86D0027C00008D4A86D40F082
:100FD0008050A865A86D012700F0805000904F4810
:100FE0000168C90512D40168814641F4807101602D
:100FF000FFF74AFB804605E0FFF746FBA0EB080041
:1010000002287DD8D9F80000C005F5D5A0680128D0
:1010100016D00528D5F8900017D020F00100C5F8AB
:101020009000D5F8900020F0040000BFC5F89000B3
:10103000A06841F28839C0B1FFF726FB80460FE077
:10104000D5F8900040F00100F0E740F00400C5F84A
:101050009000F5E7FFF718FBA0EB080149454FD8D2
:10106000D5F890008007F5D50EE0FFF70DFB804620
:1010700006E000BFFFF708FBA0EB080149453FD899
:10108000D5F890008007F5D41FB1A86D20F08050EE
:10109000A8652078800628D5606A0028D5F89800D1
:1010A00012D040F00100C5F89800FFF7EDFA0746AE
:1010B00005E000BFFFF7E8FAC01B022820D8D5F8EA
:1010C00098008007F6D510E020F00100C5F89800E0
:1010D000FFF7DAFA074604E0FFF7D6FAC01B02284A
:1010E0000ED8D5F898008007F6D4A06AF0B302288D
:1010F00016D00C2E7DD0286820F08070286000E08B
:10110000A7E0FFF7C1FA0446A6E000000010024085
:10111000A02000080C000020040000200070004007
:10112000E868E26A00F00301914228D1216B00F0E7
:10113000700209011039914221D1626B00F4FE4125
:10114000B1EB022F1BD194F8382000F07841B1EBBD
:10115000C26F14D1A18F00F4C00249084905A1F55E
:10116000001191420BD194F8401000E06AE0490868
:10117000490600F0C060A1F1007181424BD00C2EF5
:1011800073D02868400170D4286820F080702860EF
:10119000FFF77AFA064604E0FFF776FA801B02288A
:1011A00057D828688001F7D4F4E90B016FF00F02DB
:1011B00002EB01110843218A5204490802EB415114
:1011C000A26841EA02210843217D4FF07E4249088E
:1011D00002EB41610843217B40EAC160E968244A8F
:1011E00011400843E860286840F080702860E86893
:1011F00000E03AE040F08070E860FFF745FA04460E
:1012000005E000BFFFF740FA001B022821D828683C
:101210008001F7D527E02868800124D4286840F0B1
:1012200080702860E86840F08070E860FFF72CFA72
:10123000044604E0FFF728FA001B022809D82868B2
:101240008001F7D50FE000BFFFF71EFA001B022850
:1012500002D90320BDE8F88328688001F4D4E86847
:1012600004490840E8600020F4E70120F2E70000AC
:101270008C809D01FCFFEEFE10B5401EB0F1807F1A
:1012800001D3012010BD4FF0E02460610F216017F1
:1012900000F051FE0020A06107202061002010BD59
:1012A00070477047704710B5040003D094F83D00B4
:1012B00010B107E0012010BD002084F83C0020465A
:1012C00000F022F8022084F83D00211D206800F083
:1012D000D7FB012084F8480084F83E0084F83F00E2
:1012E00084F8400084F8410084F8420084F8430008
:1012F00084F8440084F8450084F8460084F84700E8
:1013000084F83D00002010BD08B500680B498842F4
:1013100012D10B48016E41F400310166006E0022CB
:1013200000F40030009011461920FFF711FABDE8D3
:1013300008401920FFF7FEB908BD00000044014035
:101340000010024090F83D10012901D001207047A3
:10135000022180F83D100168CA6842F00102CA60AB
:1013600000680B49884205D0B0F1804F02D009498E
:10137000884207D18168084A1140062906D0B1F594
:10138000803F03D0016841F00101016000207047F7
:10139000002C0140004001400700010070472DE98A
:1013A000F04104460068C66805694FF00007A907C8
:1013B00013D5B10711D5F91E0161012020772068EE
:1013C00080698007204602D0FFF7E8FF04E000F0C4
:1013D00089F8204600F087F82777680716D5700748
:1013E00014D521686FF0040008610220207720687E
:1013F000806910F4407F204602D0FFF7CFFF04E061
:1014000000F070F8204600F06EF82777280715D511
:10141000300713D521686FF0080008610420207799
:101420002068C0698007204602D0FFF7B7FF04E0BC
:1014300000F058F8204600F056F82777E80616D551
:10144000F00614D521686FF010000861082020779D
:101450002068C06910F4407F204602D0FFF79EFF4D
:1014600004E000F03FF8204600F03DF82777E80759
:1014700008D0F00706D021686FF00100086120460F
:1014800000F032F8280608D5300606D521686FF03E
:10149000800008612046FFF704FFE80508D5300604
:1014A00006D521686FF4807008612046FFF7F8FECA
:1014B000680608D5700606D521686FF040000861FF
:1014C000204600F021F8A8060AD5B00608D5216804
:1014D0006FF0200008612046BDE8F041FFF7E2BE52
:1014E000BDE8F0817047704700680549884205D122
:1014F00004480168491C016000F094BD7047000079
:101500000044014010000020704710B5040002D0D4
:10151000E06F10B107E0012010BD002084F87800D2
:10152000204600F025F82420E0672068016821F0BB
:1015300001010160606A10B1204600F0D7FA204630
:1015400000F0B2FB0128E7D02068416821F4904107
:1015500041602068816821F02A018160206801686B
:1015600041F0010101602046BDE8104000F022BBBF
:101570002DE9F0419EB00446142117A8FEF711FF93
:101580005C216846FEF70DFF29492068294C032796
:10159000022600254FF0070888421ED168460096B3
:1015A0000995FFF743F908B1FEF762FFA06D40F41B
:1015B0000030A065A06D00F400301C90E06C40F09D
:1015C0000100E064E06C17A900F001001C900C2001
:1015D000CDE917064FF0904021E01749884223D10A
:1015E00004200A9500906846FFF720F908B1FEF73D
:1015F0003FFFA06D40F48020A065A06D00F4802026
:101600001C90E06C40F00400E064E06C17A900F06E
:1016100004001C904FF44060CDE91706074819AA52
:1016200082E8A001FEF738FF1EB0BDE8F08100009F
:1016300000440040001002400048004000080048FC
:101640002DE9F8430446C06F984616460D462028FB
:1016500002D00220BDE8F88395B18EB10020C4F815
:1016600084002120E067FFF70FF8A4F8506081465E
:10167000A4F85260A0682027B0F5805F02D003E094
:101680000120E7E7206910B12E46002510E0002672
:101690000EE08021204600F007FCC0B9D6B116F854
:1016A000010B21680885B4F85200401EA4F85200CE
:1016B000B4F852004B464FF00002CDF800800028ED
:1016C000E7D14FF04001204600F0EEFB38B1E7676C
:1016D0000320BFE735F8020BC0F30800E1E7E76736
:1016E0000020B7E7FEE7000030B587B01421684658
:1016F000FEF757FE1648C16C41F00101C164C16C90
:1017000001F001010591C16C41F00401C164C16C9B
:1017100001F004010591C16C41F00201C164C06C8B
:101720000C4D00F002004FF4607405900122214638
:101730002846FEF7A4FF012000210094CDE9010115
:10174000039169462846FEF7A7FE07B030BD0000AA
:1017500000100240000400480C4810B50A4901601E
:101760004F214160002140F2E732C0E902120161DD
:10177000416180218161FFF796FD002803D0BDE81B
:101780001040FEF775BE10BD00440140140000205B
:101790000D4810B50B4901604FF41651416000210E
:1017A00081600C22C160C0E904128161C1610162E3
:1017B0004162FFF7AAFE002803D0BDE81040FEF703
:1017C00057BE10BD00440040600000200D4810B519
:1017D0000B4901604FF416514160002181600C22D9
:1017E000C160C0E904128161C16101624162FFF719
:1017F0008CFE002803D0BDE81040FEF739BE10BDB6
:1018000000480040E8000020FEE7FEE770470000C7
:101810002DE9F041444C05468846E06800268107E2
:1018200028680DD0E16801F00301814216D1A8B10A
:10183000E0686968C0F30210401C88420ED120E0C5
:10184000012804D0022805D0032807D108E0216828
:10185000890701E021684905002907DB01265FE0CF
:101860002168890302D421684903F5E7E1686A68C1
:101870006FF00F0321F0730103EB021211430143D8
:10188000E160206820F080602060FEF7FDFE0746E2
:1018900005E000BFFEF7F8FEC01B022837D820681D
:1018A0000001F7D4B8F1000F18D0B8F1010F1DD026
:1018B000287D4FF07E41400801EB4060A96840EA76
:1018C00001202169194A114008432061206840F035
:1018D00080602060FEF7D8FE07461AE0A868297BE2
:1018E000000240EAC1602169114AECE7288A1149E7
:1018F000400801EB4050A96840EA012021690E4AE6
:10190000E1E700BFFEF7C0FEC01B022801D9032695
:1019100006E020680001F5D52069A9690843206127
:101920003046BDE8F081000000100240FF80FFF962
:10193000FF80FF070000E0FFFF809FFFF8B51C4D10
:1019400006460024A86DC00002D5FEF767FF0DE033
:10195000A86D40F08050A865A86D00F08050009000
:10196000FEF75CFFA96D21F08051A965B0F5007FFD
:1019700004D0802E07D94FF003040AE0802E08D946
:10198000A02E01D804E001D1022402E0702E00D183
:1019900001240848016821F0070121430160006823
:1019A00000F00700A04201D00120F8BD0020F8BDE2
:1019B00000100240002002407047FEF76BBE10B5D9
:1019C00096B044216846FEF7ECFC142111A8FEF7FE
:1019D000E8FC4FF40070FEF7EDFE08B172B6FEE7CA
:1019E000102000900120002460210690CDE90741DD
:1019F0000221CDE90A100C9028200D900720CDE996
:101A00000E0168461091FFF787F908B172B6FEE73C
:101A10000F2011900320CDE912041494042111A881
:101A20001594FFF761F8002801D072B6FEE716B0F2
:101A300010BD00000248016841F470010160704768
:101A400088ED00E010B50C48FFF7A9FC0A480068D3
:101A50000169C943C9070DD1C168C943C90709D183
:101A6000891E016105480168491C0160BDE81040FC
:101A700000F0D8BA10BD00001400002010000020B3
:101A800070B50268164B4FF08046984201D0B042C4
:101A900003D122F070044A682243124C124D98423E
:101AA00005D0B04203D0A04201D0A84203D122F415
:101AB0004076CA6832434E6922F0800232430260A7
:101AC0008A68C2620A688262984203D0A04201D04A
:101AD000A84201D1096901630121416170BD000083
:101AE000002C0140004001400044014090F82410C7
:101AF000090706D501684A68436B22F400421A437D
:101B00004A6090F82410C90706D001684A68836AC1
:101B100022F400321A434A6090F82410890706D54F
:101B200001684A68C36A22F480321A434A6090F816
:101B30002410490706D501684A68036B22F4802205
:101B40001A434A6090F82410C90606D501688A68CD
:101B5000836B22F480521A438A6090F8241089061D
:101B600006D501688A68C36B22F400521A438A6062
:101B700090F82410490611D501684A68036C22F4D4
:101B800080121A434A60016CB1F5801F06D10168CA
:101B90004A68436C22F4C0021A434A6090F8241049
:101BA000090606D501684A68806C22F400220243C7
:101BB0004A6070472DE9F84300260446C0F8846067
:101BC000FEF762FD8046206800684FF020050007A0
:101BD0006FF07E4712D54346002229042046009725
:101BE00000F062F950B1216851E8000F20F0800048
:101BF00041E80002002AF6D1E56721E0206800688C
:101C0000400722D5434600224FF48001204600972A
:101C100000F04AF9C8B1216851E8000F20F4907033
:101C200041E80002002AF6D12068083050E8001F81
:101C300021F0010140E80012002AF5D1C4F88050DB
:101C400084F878600320BDE8F883E567C4F8805025
:101C500044F8606F666026760020F4E7016851E87A
:101C6000002F22F4907241E80023002BF6D1016886
:101C7000083151E8002F22F0010241E80023002B37
:101C8000F5D1016E012908D1026852E8001F21F048
:101C9000100142E80013002BF6D12021C0F880107B
:101CA00000210166816670472DE9F0410446016814
:101CB00080682269E3691043626900251A43104372
:101CC000714F0A68714B1A4002430A6020684168EC
:101CD000E26821F44051114341602168A069B94292
:101CE00001D0226A10438A6822F4306202438A607B
:101CF0006749236867488B420DD1D0F8880010F0FF
:101D0000030006D0012847D0022843D0032830D151
:101D100044E001212EE060498B420BD1D0F88800CD
:101D200010F00C0034D0042836D0082832D00C280B
:101D30001FD133E059498B420BD1D0F8880010F005
:101D4000300025D0102827D0202823D0302810D1CB
:101D500024E0BB420DD1D0F8880010F4406017D0C9
:101D6000B0F5806F18D0B0F5006F13D0B0F5406FAC
:101D700014D010214A4A00264FF40040BB422FD114
:101D800071B102290FD004290FD0082973D10FE0B7
:101D90000021EFE70221EDE70421EBE70821E9E765
:101DA000FEF744FF03E0104602E0FEF763FFE8B3EE
:101DB000626802EB420181425DD8B0EB023F5AD823
:101DC000010E03025008181871410023FEF74EFA65
:101DD000344AA0F5407191424DD82168C8604BE06B
:101DE000E3694FF6EF77834228D1092943D2DFE830
:101DF00001F005080B420D4242421000FEF716FFAB
:101E000006E0FEF725FF03E0104602E0FEF732FF92
:101E100060B14100606801EB5001B1FBF0F0A0F14E
:101E20001001B94227D84FF6F07100E024E00140DC
:101E3000C0F3420001432068C1601DE009291AD2A5
:101E4000DFE801F005080B190D1919191000FEF74C
:101E5000EDFE06E0FEF7FCFE03E0104602E0FEF7B2
:101E600009FF48B1616800EB5100B0FBF1F0A0F14F
:101E70001001B94205D90125A6662846E666BDE8E7
:101E8000F08180B2A9E7000000800040F369FFEF15
:101E9000003801400010024000440040004800406B
:101EA0000024F400FFFC0F002DE9F0479946174687
:101EB0000E4604464FF00008089D2FE0681C2DD008
:101EC000FEF7E2FBA0EB0900A84214D89DB1206800
:101ED0000168490722D5C169C94309070DD40825FE
:101EE00005622046FFF7BAFEC4F8845084F8788073
:101EF0000120BDE8F0870320FBE7C069C04300056F
:101F00000CD421684FF4006008622046FFF7A6FE5B
:101F10002020C4F8840084F87880ECE72068C06949
:101F200036EA000004D00020B842C7D00020E0E725
:101F30000120F9E7FEE70907090E002804DB00F19C
:101F4000E02080F80014704700F00F0000F1E0205E
:101F500080F8141D7047000008B5FEF7A3FBFFF7DB
:101F60002EFDFFF7C1FBFFF713FCFFF72FFCFFF778
:101F7000F3FB00F00DF805A004210068009068460E
:101F800000F07CF80A20FEF775FAF4E7010203047A
:101F900010B5054800F034F8BDE81040034AC821E8
:101FA00003A000F009B80000140000205920000828
:101FB00054696D657231000070B515460E460246D3
:101FC0000E49002000EB400301EBC3031B7D23B14E
:101FD000401C0528F6DB002070BD00EB400001EB43
:101FE000C00411462046FEF7B8F90020A660C4E9F7
:101FF000030501202075204670BD000070010020FF
:1020000010B5FFF79FF900200549024600EB400399
:1020100001EBC303401C1A750528F7DB10BD000057
:102020007001002070B500240A4D264604EB4400E0
:1020300005EBC000017D41B1C168491CC1608268E7
:10204000914202D3C66000698047641C052CEDDB19
:1020500070BD00007001002080210148FEF707BB21
:102060000004004801B54FF47A7301226946024822
:10207000FFF7E6FA08BD0000E800002070B50C4646
:10208000054605E0641EA4B215F8010BFFF7EAFF50
:10209000002CF7D170BD4FF04070E1EE100A704790
:1020A0000000000000000000010203040607080908
:1020B000A0860100400D0300801A060000350C00C8
:1020C00040420F0080841E0000093D0000127A008B
:1020D0000024F40000366E010048E801006CDC02C8
:1020E0000000000001020304082100080000002095
:1020F00014000000C80100081C2100081400002082
:1021000034080000E4010008010000001000000095
:0C2110000000000000093D00000000007D
:040000050800018D61
:00000001FF
