:020000040800F2
:10000000980800204D020008031C0008211A00086F
:10001000011C0008430400085523000800000000EC
:10002000000000000000000000000000071C0008A5
:100030000105000800000000051C0008091C00085C
:1000400067020008670200086702000867020008EC
:1000500067020008670200086702000867020008DC
:1000600067020008670200086702000867020008CC
:1000700067020008450400086702000851040008F0
:1000800067020008670200086702000867020008AC
:10009000670200086702000867020008670200089C
:1000A000670200086702000867020008670200088C
:1000B000670200086702000867020008670200087C
:1000C000670200086702000867020008670200086C
:1000D000670200086702000867020008670200085C
:1000E000670200086702000867020008670200084C
:1000F000670200086702000867020008670200083C
:10010000670200086702000867020008670200082B
:10011000351F000867020008670200086702000830
:10012000670200086702000867020008670200080B
:1001300067020008670200086702000867020008FB
:1001400067020008670200086702000867020008EB
:1001500067020008670200086702000867020008DB
:1001600067020008670200086702000867020008CB
:10017000670200086702000867020008000000002C
:1001800067020008670200086702000867020008AB
:10019000670200086702000867020008670200089B
:1001A00000000000000000006702000800F002F8F4
:1001B00000F03CF80AA090E8000C82448344AAF1C5
:1001C0000107DA4501D100F031F8AFF2090EBAE8C3
:1001D0000F0013F0010F18BFFB1A43F0010318477B
:1001E0003422000054220000103A24BF78C878C19D
:1001F000FAD8520724BF30C830C144BF04680C602D
:10020000704700000023002400250026103A28BF74
:1002100078C1FBD8520728BF30C148BF0B60704778
:100220001FB502F0E1F81FBD10B510BD00F0CFF80A
:100230001146FFF7F5FF02F09FF800F0EDF803B468
:10024000FFF7F2FF03BC00F0F5F800000948804713
:1002500009480047FEE7FEE7FEE7FEE7FEE7FEE7A8
:10026000FEE7FEE7FEE7FEE704480549054A064BC0
:1002700070470000AD1C0008AD0100089802002086
:1002800098080020980400209804002053EA020CEB
:1002900000F069802DE9F04B4FF00006002B1FBFE6
:1002A000B3FA83F503FA05F424FA05F65E4012BFAB
:1002B0001643B2FA82F502FA05F4C5F120051EBF15
:1002C00022FA05FC44EA0C04203556EA044C4FEAB5
:1002D000144418BF641C4FF000084FF0000990420E
:1002E00071EB030C39D3002919BFB1FA81F701FA78
:1002F00007F6B0FA80F700FA07F6C7F120071EBF2D
:1003000020FA07FC46EA0C062037B6FBF4FCA7EB04
:100310000507103F07F01F0BCBF120060CFA0BFB73
:100320002CFA06F644BFB3460026202FA4BF5E4633
:100330004FF0000B5BEA060C08BF4FF0010B19EB06
:100340000B09ABFB027C48EB0608C01B06FB02CC8A
:100350000BFB03CC71EB0C01C1E70B460246414697
:100360004846BDE8F08B13B54FF000004FF0000198
:10037000AFF30080BDE81C4070474FF0000200B5AD
:10038000134694469646203922BFA0E80C50A0E8B8
:100390000C50B1F12001BFF4F7AF090728BFA0E866
:1003A0000C5048BF0CC05DF804EB890028BF40F832
:1003B000042B08BF704748BF20F8022B11F0804F74
:1003C00018BF00F8012B704770477047704775469B
:1003D00000F02CF8AE4605006946534620F00700B1
:1003E000854618B020B5FFF73FFFBDE820404FF02D
:1003F00000064FF000074FF000084FF0000B21F00F
:100400000701AC46ACE8C009ACE8C009ACE8C009DB
:10041000ACE8C0098D46704710B50446AFF30080C4
:100420002046BDE81040FFF70ABF000000487047B3
:100430003802002001491820ABBEFEE7260002006A
:100440007047FEE7014800F0B9B8000078010020CD
:10045000014800F0B3B80000D8010020016818235B
:10046000CAB2103AB2FBF3F2054B6FF30901032A4B
:100470009B5CC36500D9091D816508467047000073
:10048000F223000810B5014600208B698A6A4FF0FC
:10049000C07453B1B3F5005F15D072B1012A0CD00E
:1004A000022A0AD0032A09D104E01AB1012A06D08F
:1004B000022A03D1C96AC90100D5012010BDC96A49
:1004C000A142FAD010BD002AF7D0012AF2D0022AA8
:1004D000F3D0032AF3D010BD30B50468256825F4A5
:1004E00080252560046863608368402B036803D01F
:1004F00099600068C26030BD9A600068C16030BD1C
:10050000704772B6FEE72DE9F0410446876D00F0B2
:10051000F9FA064694F835000025022806D0802016
:10052000606584F834500120BDE8F08120680168DE
:1005300021F0160101602068416921F080014161CC
:10054000206C08B9A06C20B12068016821F0080176
:1005500001602068016821F0010101600CE000F0F9
:10056000D1FA801B052807D920206065032084F874
:10057000350084F83450D7E720680068C007EED112
:1005800094F85C103F208840B860012084F8350062
:1005900084F834500020C7E790F83510022903D0C2
:1005A0008021416501207047052180F835100068E1
:1005B000016821F001010160002070472DE9F84336
:1005C00004464FF00009CDF8009063484FF41651EF
:1005D000A56D0068B0FBF1F72E6894F85C10082058
:1005E00000FA01F131420FD021680A6852070BD599
:1005F0000A6822F004020A6094F85C108840A8603F
:10060000606D40F00100606594F85C104FF00108E7
:1006100008FA01F0304208D021684969090604D57A
:10062000A860606D40F00200606594F85C100420E2
:100630008840304208D021680968890704D5A8603D
:10064000606D40F00400606594F85C1010208840F4
:10065000304218D021680968090714D5A8602068BD
:100660000168490304D50068000308D5A16C07E0C0
:100670000168C90503D4016821F008010160216CFB
:1006800009B12046884794F85C1020208840304209
:1006900031D021680968C9062DD5A86094F83500C5
:1006A00005282068016806D0490347D50068000383
:1006B0001DD4616C1CE021F01601016020684169C5
:1006C00021F080014161206C08B9A06C20B1206844
:1006D000016821F00801016094F85C103F20884017
:1006E000A86084F8358084F83490216D1FE0E16BB8
:1006F00009B120468847606D00282BD0606DC00787
:1007000014D0052084F835002068016821F001012B
:1007100001600098401C0090B84203D8206800682F
:10072000C007F6D184F8358084F83490E16C002954
:1007300010D001B02046BDE8F04308470168C90564
:10074000D5D4016821F01001016084F8358084F867
:100750003490CCE7BDE8F8830C0000202DE9F0418F
:10076000044600F0CFF906465CB1022084F835005B
:10077000002584F834502068016821F001010160EF
:100780000DE00120BDE8F08100F0BCF9801B0528D8
:1007900005D920206065032084F83500F2E7206841
:1007A0000068C007F0D12268116820480140D4E9F0
:1007B00001031843D4E903363343184363691843EC
:1007C000A3691843E3691843236A18430843616A1D
:1007D000042903D1D4E90B1319430843106020689E
:1007E0004069666A20F0070130460E43012704285D
:1007F0000CD1A06A0643E06A40B12046FFF742FEF2
:1008000020B14020606584F83570BAE72068466101
:100810002046FFF723FE94F85C203F219140816041
:10082000656584F835700020ACE700003F8010F06B
:100830002DE9F0410446866D90F83400002501282A
:100840000DD0012084F8340094F835700020012F79
:1008500007D084F8340002252846BDE8F081022044
:10086000FBE7022784F8357060652046FFF734FE09
:1008700094F85C103F208840B0602068016841F027
:1008800016010160206C20B12068016841F0080168
:1008900001602068016841F001010160DCE70000AF
:1008A00070B5044600F02EF90546601C02D00448DD
:1008B0000078044400F026F9401BA042FAD370BD32
:1008C000000000202DE9F84FDFF8F8A100220124F4
:1008D00003254FF00F090AF1040BAAF1040E00BF23
:1008E0000B6804FA02F63340B34270D10F7907F077
:1008F0000307012F01D0022F16D187684FEA420863
:1009000005FA08FC27EA0C07D1F80CC00CFA08FC21
:100910004CEA070CC0F808C04768B7430E79C6F325
:10092000001696403E4346600E79F643B6070AD05D
:10093000C7684FEA420C05FA0CF6B7438E6806FA10
:100940000CF63E43C6600E7906F00306022E10D167
:10095000D60800EB8608D8F8206057074FEAD76C16
:1009600009FA0CF7BE430F6907FA0CF73743C8F8CA
:10097000207006684FEA420C05FA0CF7BE430F7967
:1009800007F0030707FA0CF7374307604E6816F4C1
:10099000403F1CD04C4E376847F48047376036687C
:1009A00022F0030706F480460096484E07EB060C3B
:1009B000DCF8086897073F0F09FA07F826EA0806E7
:1009C000DFF80C81404503D14FF0000841E072E0B0
:1009D000DFF80081404502D14FF0010839E0DFF82F
:1009E000F880404502D14FF0020832E0DFF8EC8099
:1009F000404502D14FF003082BE0DFF8E48040458A
:100A000002D14FF0040824E0DFF8D880404502D13D
:100A10004FF005081DE0DFF8D080404502D14FF0CF
:100A2000060816E0DFF8C480404502D14FF0070801
:100A30000FE0DFF8BC80404502D14FF0080808E025
:100A4000DFF8B080404502D14FF0090801E04FF0D7
:100A50000A0808FA07F848EA0608CCF80888DAF81D
:100A600000605746D1F804C09E435FEACC2C00D505
:100A70001E433E60DBF800605F46D1F804C09E4331
:100A80005FEA8C2C00D51E433E60DEF8006077469E
:100A9000D1F804C09E435FEA8C3C00D51E433E6003
:100AA000084F083F3E68D1F804C09E435FEACC3C43
:100AB00000D51E433E60521C102AFFF411AFBDE862
:100AC000F88F0000083C01404438024000300140EB
:100AD000000002400004024000080240000C0240F6
:100AE000001002400014024000180240001C0240A6
:100AF00000200240002402400AB1816170470904CD
:100B0000FBE70000014880687047000000000020FB
:100B1000024881680278114481607047000000201B
:100B20000B4810B5016841F400710160016841F49F
:100B300080610160016841F480710160032000F070
:100B40006FF80F2000F006F800F024F8002010BD28
:100B5000003C024070B50D4D04464FF47A71287880
:100B6000B1FBF0F00A490968B1FBF0F000F044FB7A
:100B700048B9102C07D200222146501E00F030F850
:100B800000206C6070BD012070BD000000000020DE
:100B90000C0000200A4808B5016841F4804101605A
:100BA000006800F4804000900548001F016841F093
:100BB00080510160006800F08050009008BD000086
:100BC00044380240002809DB00F01F020121914057
:100BD0004009800000F1E020C0F8001170470000DB
:100BE000F0B40E4B1B680C46C3F30223C3F1070598
:100BF000042D00D90425191D072901D2002300E086
:100C0000DB1E012606FA05F1491E214099409E404F
:100C1000761E16403143F0BC01F09DBB0CED00E0A8
:100C2000064900F0070208684FF6FF03184040EA43
:100C30000220034A10430860704700000CED00E0FA
:100C40000000FA052DE9F8431748016841F080518A
:100C500001600068154F00F08050012600903E644E
:100C6000FFF750FF05464FF47A78114C05E000BFBE
:100C7000FFF748FF401B40450DD86068C003F7D51B
:100C80007E64FFF73FFF0546464607E0FFF73AFF61
:100C9000401BB04202D90320BDE8F883606880039E
:100CA000F4D50020F8E700004038024000000E4272
:100CB000007000402DE9F0470E46050065D0DFF8D2
:100CC0001481D8F80000F7B200F00F00B04207D24C
:100CD00088F80070D8F8000000F00F00B04254D13E
:100CE00028683D4C810712D5400703D5206840F4A1
:100CF000E05020602878000703D5206840F4604069
:100D000020602068A96820F0F0000843206028785F
:100D1000C0072DD0304968680839012812D0022850
:100D200013D0032811D00968890700292DDA21681A
:100D300021F0030101432160FFF7E4FE814641F207
:100D4000883A0EE009688903EFE709688901ECE752
:100D5000FFF7D8FEA0EB0901514502D90320BDE8F9
:100D6000F0872068696800F00C00B0EB810FEFD1CC
:100D7000D8F80010404601F00F01B14207D90770C2
:100D8000006800F00F00B04201D00120E7E72878AA
:100D9000400705D52068E96820F4E050084320604A
:100DA0002878000706D52068296920F4604040EAC9
:100DB000C100206000F038F82168084AC1F303112F
:100DC000515CC8400649086006480068FFF7C2FE4B
:100DD0000020C4E7003C024008380240FA23000823
:100DE0000C00002004000020044805490068096840
:100DF000044AC1F38221515CC84070470C000020B6
:100E0000083802400A2400080448054900680968B7
:100E1000044AC1F34231515CC84070470C000020C5
:100E2000083802400A240008154810B5006810F080
:100E30000C02144813D01449042A0FD0082A0ED1EA
:100E40000F4C241F2268236802F03F025B0207D583
:100E50002068C0F38810A0FB010106E0084610BD21
:100E60002168C1F38811A1FB00010023FFF70EFAEE
:100E70002168C1F30141491C4900B0FBF1F010BDEC
:100E8000083802400024F40040787D012DE9F84F35
:100E900004006ED02078DFF84C93C007A9F1040558
:100EA0004AD009F104000168C1F38101012908D089
:100EB0000068C0F3810002280AD1D9F8000040027E
:100EC00006D52868800337D560680028E1D033E074
:100ED0006068B0F5803F10D0B0F5A02F286810D022
:100EE00020F480302860286820F480202860606822
:100EF000A8B1FFF707FE06460DE0286840F48030F1
:100F0000F4E740F480202860F7E700BFFFF7FAFD20
:100F1000801B642873D828688003F7D50CE0FFF79E
:100F2000F1FD064605E000BFFFF7ECFD801B6428DD
:100F3000F0D828688003F7D42078DFF8AC828007E7
:100F40004FF0000A3ED5A748001D016811F00C0FB4
:100F500008D00068C0F3810002280BD1D9F8000046
:100F6000400207D42868800716D5E068012800D120
:100F700012E033E1E068B8B10120C8F80000FFF7E3
:100F8000C1FD064605E000BFFFF7BCFD801B02283F
:100F9000C0D828688007F7D52868216920F0F800B4
:100FA00040EAC10028600DE0C8F800A0FFF7AAFDE4
:100FB000064604E0FFF7A6FD801B02281FD828681C
:100FC0008007F7D42078000722D5864F87486169CB
:100FD000703771B101210160FFF794FD064604E00E
:100FE000FFF790FD801B022809D838688007F7D5E5
:100FF0000EE0C0F800A0FFF785FD064605E082E0A0
:10100000FFF780FD801B02287DD838688007F7D461
:101010002078400768D5DFF8CCB100270BF13C0BF6
:10102000DBF80000C0000BD4DBF8001041F0805169
:10103000CBF80010DBF80000012700F08050009092
:101040006B4E3068C00510D4306840F4807030605A
:10105000FFF758FD009005E0FFF754FD0099401A96
:10106000022850D83068C005F6D55E4EA0686C36B0
:1010700001280FD00528306810D020F00100306022
:10108000306820F004003060A068B8B1FFF73AFD86
:1010900000900FE0306840F00100F4E740F00400F9
:1010A0003060F7E7FFF72EFD0099411A41F28830D2
:1010B000814266D830688007F4D50EE0FFF722FD44
:1010C000009007E0FFF71EFD0099411A41F28830B9
:1010D000814256D830688007F4D42FB1DBF8001075
:1010E00021F08051CBF80010A069C8B33D49091D1B
:1010F0000968C1F3810102294AD00228504607D06D
:10110000C8F8600000E03CE0FFF7FCFC04463BE070
:101110004746C8F86000FFF7F5FC064605E000BF4B
:10112000FFF7F0FC801B02282BD828688001F7D439
:10113000D4E907010843A16A2E4A490802EB01419C
:10114000626A41EA8211084394F82C1040EA016176
:10115000C9F8001001203866FFF7D4FC044606E009
:101160003EE000BFFFF7CEFC001B022809D828682C
:101170008001F7D534E000BFFFF7C4FC001B022854
:1011800002D90320BDE8F88F28688001F4D427E055
:101190000128F7D0D9F80000E26900F480019142FB
:1011A0001CD1226A00F03F01914217D147F6C0716D
:1011B000626A0140B1EB821F10D1A26A4FF0FF3387
:1011C00000F4403103EB5202B1EB024F06D194F828
:1011D0002C1000F07060B0EB016F01D00120D1E75E
:1011E0000020CFE70438024000004742800E47420B
:1011F000007000400000FFFF10B5401EB0F1807F7E
:1012000001D3012010BD4FF0E02460610F21601771
:1012100001F0A1F80020A06107202061002010BD8E
:1012200070B590F83C20012A32D0012480F83C406F
:10123000022280F83D2003685A689D6822F07006FB
:101240000A6832435A60134B02689A4214D0B2F1D2
:10125000804F11D0104B9A420ED0104B9A420BD0B7
:101260000F4B9A4208D00F4B9A4205D00E4B9A4230
:1012700002D00E4B9A4204D1496825F080031943ED
:10128000916080F83D40002180F83C10084670BD18
:10129000022070BD00000140000400400008004032
:1012A000000C0040000401400040014000180040D4
:1012B00010B586B0044614216846FFF75EF823682F
:1012C000174C002117480222A34210D1036843F0B3
:1012D00004030360006800F0040005901002009011
:1012E000CDE90121CDE9031269460F4813E00F4C07
:1012F000A34212D1036843F010030360006800F0BA
:101300001000059020200090CDE901210320CDE9B7
:10131000031069460648FFF7D5FA06B010BD000075
:101320000004004030380240000802400040014004
:101330000010024070B5044690F83C0000260D46AF
:1013400001280FD0012084F83C006AB1042A1DD086
:10135000082A2FD00C2A3FD00126002084F83C0018
:10136000304670BD022070BD206800F021FD20686D
:10137000816941F0080181612068816921F00401DF
:101380008161206881692A69114311E0206800F0B9
:101390003FFD2068816941F40061816120688169B5
:1013A00021F480618161206881692A6941EA022112
:1013B0008161D2E7206800F061FD2068C16941F0D9
:1013C0000801C1612068C16921F00401C161206880
:1013D000C1692A69114311E0206800F083FD20688B
:1013E000C16941F40061C1612068C16921F4806173
:1013F000C1612068C1692A6941EA0221C161ACE783
:1014000010B5040003D094F83D0010B107E00120AE
:1014100010BD002084F83C00204600F01FF8022098
:1014200084F83D00211D206800F048FC012084F86C
:10143000460084F83E0084F83F0084F8400084F8B9
:10144000410084F8420084F8430084F8440084F8A2
:10145000450084F83D00002010BD000008B500687C
:101460000C49884208D10C48016841F00201016032
:10147000006800F002000BE00849884209D10648E4
:10148000001D016841F480310160006800F4803083
:10149000009008BD00040040403802400040014078
:1014A00010B50446022249B104290ED0082913D0F0
:1014B00094F84100012816D0012010BD94F83E0098
:1014C0000128F9D184F83E200FE094F83F0001286C
:1014D000F2D184F83F2008E094F840000128EBD1D5
:1014E00084F8402001E084F841200122206800F0C7
:1014F00051FC16492068164A884201D0904203D117
:10150000436C43F4004343642068884213D0B0F135
:10151000804F10D00F4988420DD00F4988420AD021
:101520000E49884207D0904205D00D49884202D02A
:101530000C49884204D1816801F00701062903D0D3
:10154000016841F001010160002010BD0000014070
:10155000000401400004004000080040000C00406E
:10156000004001400018004038B5044690F84200A1
:10157000202801D0022038BD61B15AB1012020637A
:1015800000206063204600F09DFE0028F3D1216B0F
:10159000012901D0012038BD21680A6849680091FD
:1015A00021680C3151E8002F42F0100241E800237D
:1015B000002BF5D138BD000010B50A460749084890
:1015C00000F0F0F90D2205490548FFF7CDFF054869
:1015D0000068016821F00801016010BD10000020C2
:1015E000300100207801002070470000F8B5016844
:1015F00004460868CA684B6910F00F0F4FF00005E9
:1016000059D003F0010602F49077374365D0C10743
:1016100005D0D10503D5616C41F00101616441073A
:1016200005D5D90703D0616C41F0020161648107DF
:1016300005D5D90703D0616C41F00401616401074D
:1016400007D502F02001314303D0616C41F008015D
:101650006164616C00293AD0800604D5900602D5F9
:10166000204600F047FD20684069616CC0F380109F
:10167000090700D460B3204600F007FD20684069E8
:10168000400621D52068143050E8001F21F04001A9
:1016900040E80012002AF5D1E06BA8B16E4901655F
:1016A000E06BFEF779FF002811D0E06B016D01B00F
:1016B000BDE8F040084783060FD593060DD52046B8
:1016C000BDE8F84000F016BD2046FFF78DFFF8BDDD
:1016D0002046FFF789FF6564F8BD266B2023012EA5
:1016E0007DD1C6067BD5D60679D5086848680090B6
:1016F00048694FF00206400641D5E16B0868406832
:101700000004000CE8D0A28D8242E5D9E085C869CA
:10171000B0F5807F2DD020680C3050E8001F21F4F8
:10172000807140E80012002AF5D12068143050E89A
:10173000001F21F0010140E80012002AF5D12068C5
:10174000143050E8001F21F0400140E80012002A48
:10175000F5D184F84230256320680C3050E8001F32
:1017600021F0100140E80012002AF5D1E06BFEF7ED
:10177000CAFE6663A08DE18D401A81B22AE0A08D79
:10178000E18D401A81B2E08D0028A5D00029A3D0B8
:1017900022680C3252E8000F20F4907042E80007F3
:1017A000002FF5D12068143050E8002F22F00102FC
:1017B00040E80027002FF5D184F8423025632068E7
:1017C0000C3050E8002F22F0100240E80023002BDC
:1017D000F5D166632046FFF7EFFEF8BDFFE705068B
:1017E0002BD5150629D594F841002128F5D1A068FC
:1017F000B0F5805F01D12069B0B1206A411C21623F
:10180000216800784860E08C401E0004000CE084F1
:10181000E3D12068C16821F08001C1602068C168FF
:1018200041F04001C160D8E7206A0088C0F3080099
:101830004860206A801C2062E5E74006CDD550064E
:10184000CBD5CA68204622F04002CA6084F84130F5
:1018500000F0E4F8C1E70000411F000870B5040083
:1018600004D094F84100002510B106E0012070BDBD
:1018700084F84050204600F023F8242084F84100EA
:101880002068C16821F40051C160204600F094FC3A
:101890002068016921F4904101612068416921F0CB
:1018A0002A0141612068C16841F40051C16065644A
:1018B000202084F8410084F842006563002070BD58
:1018C0002DE9F04186B0064614216846FEF755FD25
:1018D0002E493068884255D12D480024016841F4D2
:1018E00000210160006800F40020059028481038AD
:1018F000016841F0010101600068022100F001006F
:10190000059003208DE81300039008200490694699
:101910002048FEF7D7FF214D1F484FF48068470548
:101920002860C5E90174C5E903486C61AC61EC61EC
:101930002C6228466C62FEF711FF08B1FEF7E1FD4C
:10194000F563AE63154D144860353030E5E80207A5
:101950004020A5E81101114845F814496030AC61F8
:10196000EC612C626C62FEF7F9FE08B1FEF7C9FD6E
:10197000B563002211463420AE63FFF731F93420FD
:10198000FFF720F906B0BDE8F0810000004C0040F0
:1019900040380240000002404060024078010020D0
:1019A0007047704770B5044690F84100202801D078
:1019B000022070BD49B342B32162A284E2840020B8
:1019C0006064212384F84130A56B114BEB63A56B58
:1019D000104B2B64A56B104BEB64A36B186525684B
:1019E00013462A1DA06BFEF723FF21686FF040000D
:1019F00008602068143050E8001F41F0800140E882
:101A00000012002AF5D1002070BD012070BD000039
:101A10003F20000881200008511F000870477047D0
:101A2000FEE700000D4808B5016841F400110160AF
:101A30000068002200F40010009011460D20FFF70E
:101A4000CFF80D20FFF7BEF8002211460F20FFF758
:101A5000C7F8BDE808400F20FFF7B4B8303802409F
:101A600070B586B014216846FEF787FC1E48002436
:101A7000016841F010010160016801F01001059159
:101A8000016841F080010160016801F08001059169
:101A9000016841F001010160016801F00101059157
:101AA000016841F020010160016801F02001059109
:101AB000016841F00401016000680C4E00F0040070
:101AC0004FF480550590002229463046FFF714F860
:101AD00001200095CDE90104694630460394FEF7E4
:101AE000F1FE06B070BD0000303802400014024024
:101AF00010B58AB0002407941C2168460894FEF7AC
:101B00003CFC1848164901605921C0E9011440F213
:101B1000E731C0E9031480218161FFF771FC08B14E
:101B2000FEF7EFFC079407A90E480894FFF778FB2F
:101B300008B1FEF7E6FC6020009041F28830CDE964
:101B400001040C22694607480494FFF7F3FB08B12F
:101B5000FEF7D7FC0348FFF7ABFB0AB010BD00004F
:101B6000000400402000002010B588B01C21684609
:101B7000FEF703FC13481249002401605921C0E913
:101B8000011440F2E731C0E9031480218161FFF7BD
:101B900037FC08B1FEF7B5FC602000906420CDE969
:101BA00001040022694607480494FFF7C3FB08B10B
:101BB000FEF7A7FC0348FFF77BFB08B010BD000051
:101BC00000400140680000200C4810B50A4901603F
:101BD0004FF416514160002181600C22C160C0E9C0
:101BE00004128161C161FFF739FE002803D0BDE80E
:101BF0001040FEF786BC10BD004C004030010020B4
:101C0000FEE7FEE770477047FEF782BF30B593B03E
:101C100030216846FEF7B1FB14210CA8FEF7ADFB9E
:101C200020480025016841F080510160006800F003
:101C3000805011901C48016841F4404101600068E7
:101C4000022400F4404011900120039010200490E1
:101C5000009406940820CDE90750B420CDE909048A
:101C600004200B906846FFF711F908B172B6FEE741
:101C7000FEF7E8FF08B172B6FEE70CA90F2081E875
:101C800031004FF4A0500F904FF480501090052178
:101C90000CA8FFF70FF8002801D072B6FEE713B0CA
:101CA00030BD00004038024000700040024801682A
:101CB00041F470010160704788ED00E0F0B5026802
:101CC000294C2A4D2A4E2B4F2B4B4FF0804CA042D3
:101CD00009D0604507D0A84205D0B04203D0B84231
:101CE00001D0984204D122F0700E4A6842EA0E02F6
:101CF000A0421BD0604519D0A84217D0B04215D0E1
:101D0000B84213D0984211D01C4DA8420ED01C4DA1
:101D1000A8420BD01B4DA84208D01B4DA84205D0AD
:101D20001A4DA84202D01A4DA84203D122F44075A0
:101D3000CA682A434D6922F080022A4302608A68F9
:101D4000C2620A688262A04201D0984201D1096948
:101D50000163012141610169C90703D0016921F0D3
:101D600001010161F0BD00000000014000040040DD
:101D700000080040000C0040000401400040014009
:101D8000004401400048014000180040001C004091
:101D90000020004010B501F01F030121046A9940A2
:101DA0008C430462016A9A401143016210BD000035
:101DB000F0B5036A026A22F0010202624268846995
:101DC000124E24F073050C682C4323F002058B6837
:101DD0002B430D4DA84201D0B04205D123F0080796
:101DE000CB683B4323F00403A84201D0B04205D1A5
:101DF0004D6922F4407215438A692A434260846126
:101E0000496841630362F0BD0000014000040140E5
:101E1000F0B5026A036A23F0100303624368846921
:101E20000D6824F4E64444EA05248D6822F020027B
:101E300042EA05120F4D104EA84201D0B04206D121
:101E4000CF6822F0800242EA071222F04002A84244
:101E500001D0B04207D14D6923F4406343EA8503C2
:101E60008D6943EA85034360846149688163026246
:101E7000F0BD00000000014000040140F0B5026A1E
:101E8000036A23F4807303624368C46922F4007216
:101E900024F073050C68124E2C438D6842EA05222B
:101EA0000E4DA84201D0B04206D1CF6822F40062A4
:101EB00042EA072222F48062A84201D0B04207D150
:101EC0004D6923F4405343EA05138D6943EA051332
:101ED0004360C4614968C1630262F0BD0000014013
:101EE0000004014030B5046A026A22F480520262A2
:101EF0004268C3690D6823F4E64343EA05238D680D
:101F000024F4005444EA0534084DA84202D0084D98
:101F1000A84204D14D6922F4804242EA851242600F
:101F2000C36149680164046230BD000000000140E3
:101F3000000401400148FFF759BB000030010020B8
:101F400010B5806B0021C185C184FFF74DFB10BD2A
:101F500070B5846B2068406994F84110C0F3C010DC
:101F60000025212904D118B1E584204600F0B4F8F9
:101F70002068406994F84210C0F38010222904D1EF
:101F800018B1E585204600F080F8606C40F0100044
:101F900060642046FFF728FB70BD10B50146806BDA
:101FA000096809684FF00002C9052ED4C28501688E
:101FB0000C3151E8003F23F4807341E80034002CD9
:101FC000F5D10168143151E8003F23F0010341E8E5
:101FD0000034002CF5D10168143151E8003F23F0A2
:101FE000400341E80034002CF5D1202180F8421054
:101FF000016B012909D101680C3151E8003F23F040
:10200000100341E80034002CF5D14263016B012933
:1020100002D0FFF7C5FC10BD818DFFF7CDFA10BDD2
:1020200010B5806B01214163016B012902D0FFF7DC
:10203000B8FC10BD818D4908FFF7BEFA10BD10B580
:102040000146806B09680968C90516D40021C1845E
:102050000168143151E8002F22F0800241E800238A
:10206000002BF5D101680C3151E8002F42F04002FD
:1020700041E80023002BF5D110BDFFF7CFFC10BDC8
:1020800010B5806BFFF7CBFC10BD01680C3151E837
:10209000002F22F4907241E80023002BF5D1016853
:1020A000143151E8002F22F0010241E80023002BF7
:1020B000F5D1016B012909D101680C3151E8002FDC
:1020C00022F0100241E80023002BF5D1202180F8F6
:1020D000421000210163704701680C3151E8002F64
:1020E00022F0C00241E80023002BF5D1202180F826
:1020F0004110704708B590F84210222901D0022003
:1021000008BD82684FF480539A4201D1016921B120
:10211000816A9A421BD04AB10AE00268816A526819
:10212000C2F308020A80816A891C08E0026972B160
:102130000268526802F07F020A70816A491C81625B
:10214000C18D491E0904090CC18503D01BE002683A
:102150005268F1E70168CA6822F02002CA6001688B
:10216000CA6822F48072CA6001684A6922F00102DA
:102170004A61202180F8421000214163026B012A4C
:1021800003D0FFF70DFC002008BD016301680C318E
:1021900051E8002F22F0100241E80023002BF5D176
:1021A00001680A68D20602D50A6849680091818DE3
:1021B000FFF702FAE7E7000070B50446006801691E
:1021C000E26821F44051114301612169A068E2698C
:1021D00008436169114308432168CA6849F20C63E6
:1021E0009A430243CA6020684169A26921F44071A0
:1021F0001143416131492068884202D03049884208
:1022000002D1FEF701FE01E0FEF7EEFDE2690023D8
:10221000192164253226B2F5004F626828D0A0FB50
:102220000101930F9200FEF731F80146B0FBF5F083
:102230006FF01802504301EB800006EB0010B0FB7A
:10224000F5F000F0F002B1FBF5F002EB0012B1FB8B
:10225000F5F06FF01803584301EB800006EB001017
:10226000B0FBF5F000F00F0021681044886070BDED
:10227000A0FB010192185B41FEF708F80146B0FB94
:10228000F5F00201B1FBF5F06FF01803584301EBD4
:10229000800006EBC000B0FBF5F000F0F80002EBA8
:1022A0004002B1FBF5F0584301EB800006EBC000A3
:1022B000B0FBF5F000F00700D6E700000010014089
:1022C0000014014038B5816204468285002013461F
:1022D0006064222284F84220E56B1B4AEA63E56BC6
:1022E0001A4A2A64E56B1A4AEA64E26B10650A46E8
:1022F0002168E06B091DFEF79BFA206801684068C1
:102300000090206948B120680C3050E8001F41F46B
:10231000807140E80012002AF5D12068143050E89E
:10232000001F41F0010140E80012002AF5D12068A9
:10233000143050E8001F41F0400140E80012002A2C
:10234000F5D1002038BD00009B1F000821200008A7
:10235000511F0008FEE70907090E002804DB00F101
:10236000E02080F80014704700F00F0000F1E0203A
:1023700080F8141D70470000FEF7D2FBFFF746FC03
:10238000FFF76EFBFFF74EFBFFF71EFCFFF7B0FBFE
:10239000FFF7EAFB0D220E490E48FFF7E5F80E485D
:1023A0000068016821F00801016000224FF48051AB
:1023B0000A48FEF7A1FB0C210948FFF771F8094D07
:1023C00040F2F3142C600120FEF76AFAFAE70000ED
:1023D000100000203001002078010020001402408D
:1023E00020000020400400404FF04070E1EE100A51
:1023F00070470006101600061016000000000000CE
:1024000000000102030406070809000000000102A1
:102410000304000034240008000000201000000025
:10242000E80100084424000810000020880800008B
:10243000040200080100000010000000000000007D
:042440000024F40080
:04000005080001AD41
:00000001FF
